{
	"contractName": "IntensityChangeToken",
	"abi": [
		{
			"inputs": [],
			"stateMutability": "nonpayable",
			"type": "constructor"
		},
		{
			"anonymous": false,
			"inputs": [
				{
					"indexed": true,
					"internalType": "address",
					"name": "owner",
					"type": "address"
				},
				{
					"indexed": true,
					"internalType": "address",
					"name": "spender",
					"type": "address"
				},
				{
					"indexed": false,
					"internalType": "uint256",
					"name": "value",
					"type": "uint256"
				}
			],
			"name": "Approval",
			"type": "event"
		},
		{
			"anonymous": false,
			"inputs": [
				{
					"indexed": true,
					"internalType": "address",
					"name": "claimedAddress",
					"type": "address"
				},
				{
					"indexed": false,
					"internalType": "uint256",
					"name": "claimAmount",
					"type": "uint256"
				}
			],
			"name": "ClaimEvent",
			"type": "event"
		},
		{
			"anonymous": false,
			"inputs": [
				{
					"indexed": true,
					"internalType": "address",
					"name": "from",
					"type": "address"
				},
				{
					"indexed": true,
					"internalType": "address",
					"name": "to",
					"type": "address"
				},
				{
					"indexed": false,
					"internalType": "uint256",
					"name": "value",
					"type": "uint256"
				}
			],
			"name": "Transfer",
			"type": "event"
		},
		{
			"inputs": [],
			"name": "admin",
			"outputs": [
				{
					"internalType": "address",
					"name": "",
					"type": "address"
				}
			],
			"stateMutability": "view",
			"type": "function",
			"constant": true
		},
		{
			"inputs": [
				{
					"internalType": "address",
					"name": "owner",
					"type": "address"
				},
				{
					"internalType": "address",
					"name": "spender",
					"type": "address"
				}
			],
			"name": "allowance",
			"outputs": [
				{
					"internalType": "uint256",
					"name": "",
					"type": "uint256"
				}
			],
			"stateMutability": "view",
			"type": "function",
			"constant": true
		},
		{
			"inputs": [
				{
					"internalType": "address",
					"name": "account",
					"type": "address"
				}
			],
			"name": "balanceOf",
			"outputs": [
				{
					"internalType": "uint256",
					"name": "",
					"type": "uint256"
				}
			],
			"stateMutability": "view",
			"type": "function",
			"constant": true
		},
		{
			"inputs": [
				{
					"internalType": "uint256",
					"name": "",
					"type": "uint256"
				}
			],
			"name": "birthOfNFT",
			"outputs": [
				{
					"internalType": "uint256",
					"name": "",
					"type": "uint256"
				}
			],
			"stateMutability": "view",
			"type": "function",
			"constant": true
		},
		{
			"inputs": [],
			"name": "decimals",
			"outputs": [
				{
					"internalType": "uint8",
					"name": "",
					"type": "uint8"
				}
			],
			"stateMutability": "view",
			"type": "function",
			"constant": true
		},
		{
			"inputs": [
				{
					"internalType": "address",
					"name": "spender",
					"type": "address"
				},
				{
					"internalType": "uint256",
					"name": "subtractedValue",
					"type": "uint256"
				}
			],
			"name": "decreaseAllowance",
			"outputs": [
				{
					"internalType": "bool",
					"name": "",
					"type": "bool"
				}
			],
			"stateMutability": "nonpayable",
			"type": "function"
		},
		{
			"inputs": [
				{
					"internalType": "address",
					"name": "spender",
					"type": "address"
				},
				{
					"internalType": "uint256",
					"name": "addedValue",
					"type": "uint256"
				}
			],
			"name": "increaseAllowance",
			"outputs": [
				{
					"internalType": "bool",
					"name": "",
					"type": "bool"
				}
			],
			"stateMutability": "nonpayable",
			"type": "function"
		},
		{
			"inputs": [
				{
					"internalType": "uint256",
					"name": "",
					"type": "uint256"
				}
			],
			"name": "lastClaimedNFTIdToAgeMapping",
			"outputs": [
				{
					"internalType": "uint256",
					"name": "",
					"type": "uint256"
				}
			],
			"stateMutability": "view",
			"type": "function",
			"constant": true
		},
		{
			"inputs": [
				{
					"internalType": "uint256",
					"name": "",
					"type": "uint256"
				}
			],
			"name": "lastClaimedNFTIdToTimeMapping",
			"outputs": [
				{
					"internalType": "uint256",
					"name": "",
					"type": "uint256"
				}
			],
			"stateMutability": "view",
			"type": "function",
			"constant": true
		},
		{
			"inputs": [],
			"name": "name",
			"outputs": [
				{
					"internalType": "string",
					"name": "",
					"type": "string"
				}
			],
			"stateMutability": "view",
			"type": "function",
			"constant": true
		},
		{
			"inputs": [],
			"name": "symbol",
			"outputs": [
				{
					"internalType": "string",
					"name": "",
					"type": "string"
				}
			],
			"stateMutability": "view",
			"type": "function",
			"constant": true
		},
		{
			"inputs": [],
			"name": "totalSupply",
			"outputs": [
				{
					"internalType": "uint256",
					"name": "",
					"type": "uint256"
				}
			],
			"stateMutability": "view",
			"type": "function",
			"constant": true
		},
		{
			"inputs": [
				{
					"internalType": "address",
					"name": "recipient",
					"type": "address"
				},
				{
					"internalType": "uint256",
					"name": "amount",
					"type": "uint256"
				}
			],
			"name": "transfer",
			"outputs": [
				{
					"internalType": "bool",
					"name": "",
					"type": "bool"
				}
			],
			"stateMutability": "nonpayable",
			"type": "function"
		},
		{
			"inputs": [
				{
					"internalType": "address",
					"name": "sender",
					"type": "address"
				},
				{
					"internalType": "address",
					"name": "recipient",
					"type": "address"
				},
				{
					"internalType": "uint256",
					"name": "amount",
					"type": "uint256"
				}
			],
			"name": "transferFrom",
			"outputs": [
				{
					"internalType": "bool",
					"name": "",
					"type": "bool"
				}
			],
			"stateMutability": "nonpayable",
			"type": "function"
		},
		{
			"inputs": [
				{
					"internalType": "uint256",
					"name": "_tokenId",
					"type": "uint256"
				},
				{
					"internalType": "uint256",
					"name": "_time",
					"type": "uint256"
				}
			],
			"name": "setBirthOfNFT",
			"outputs": [],
			"stateMutability": "nonpayable",
			"type": "function"
		},
		{
			"inputs": [],
			"name": "claim",
			"outputs": [
				{
					"internalType": "uint256",
					"name": "",
					"type": "uint256"
				}
			],
			"stateMutability": "nonpayable",
			"type": "function"
		},
		{
			"inputs": [
				{
					"internalType": "address",
					"name": "_nftAddress",
					"type": "address"
				}
			],
			"name": "setLedNFTAddress",
			"outputs": [],
			"stateMutability": "nonpayable",
			"type": "function"
		},
		{
			"inputs": [
				{
					"internalType": "address",
					"name": "spender",
					"type": "address"
				},
				{
					"internalType": "uint256",
					"name": "amount",
					"type": "uint256"
				}
			],
			"name": "approve",
			"outputs": [
				{
					"internalType": "bool",
					"name": "",
					"type": "bool"
				}
			],
			"stateMutability": "nonpayable",
			"type": "function"
		},
		{
			"inputs": [
				{
					"internalType": "address",
					"name": "owner",
					"type": "address"
				},
				{
					"internalType": "address",
					"name": "spender",
					"type": "address"
				},
				{
					"internalType": "uint256",
					"name": "amount",
					"type": "uint256"
				}
			],
			"name": "approve",
			"outputs": [
				{
					"internalType": "bool",
					"name": "",
					"type": "bool"
				}
			],
			"stateMutability": "nonpayable",
			"type": "function"
		}
	],
	"bytecode": "0x60806040523480156200001157600080fd5b506040518060400160405280601481526020017f496e74656e736974794368616e6765546f6b656e0000000000000000000000008152506040518060400160405280600381526020017f494354000000000000000000000000000000000000000000000000000000000081525081600390805190602001906200009692919062000115565b508060049080519060200190620000af92919062000115565b506012600560006101000a81548160ff021916908360ff160217905550505033600560016101000a81548173ffffffffffffffffffffffffffffffffffffffff021916908373ffffffffffffffffffffffffffffffffffffffff160217905550620001c4565b828054600181600116156101000203166002900490600052602060002090601f016020900481019282601f106200015857805160ff191683800117855562000189565b8280016001018555821562000189579182015b82811115620001885782518255916020019190600101906200016b565b5b5090506200019891906200019c565b5090565b620001c191905b80821115620001bd576000816000905550600101620001a3565b5090565b90565b61234e80620001d46000396000f3fe608060405234801561001057600080fd5b50600436106101215760003560e01c80634e71d92d116100ad578063a9059cbb11610071578063a9059cbb146105a6578063dd62ed3e1461060c578063e1f21c6714610684578063f74b40c31461070a578063f851a4401461074257610121565b80634e71d92d146104055780635541cd7d1461042357806370a082311461046557806395d89b41146104bd578063a457c2d71461054057610121565b80632809cdc4116100f45780632809cdc4146102b3578063313ce567146102f7578063395093511461031b57806348e9d72c146103815780634911d211146103c357610121565b806306fdde0314610126578063095ea7b3146101a957806318160ddd1461020f57806323b872dd1461022d575b600080fd5b61012e61078c565b6040518080602001828103825283818151815260200191508051906020019080838360005b8381101561016e578082015181840152602081019050610153565b50505050905090810190601f16801561019b5780820380516001836020036101000a031916815260200191505b509250505060405180910390f35b6101f5600480360360408110156101bf57600080fd5b81019080803573ffffffffffffffffffffffffffffffffffffffff1690602001909291908035906020019092919050505061082e565b604051808215151515815260200191505060405180910390f35b61021761084c565b6040518082815260200191505060405180910390f35b6102996004803603606081101561024357600080fd5b81019080803573ffffffffffffffffffffffffffffffffffffffff169060200190929190803573ffffffffffffffffffffffffffffffffffffffff16906020019092919080359060200190929190505050610856565b604051808215151515815260200191505060405180910390f35b6102f5600480360360208110156102c957600080fd5b81019080803573ffffffffffffffffffffffffffffffffffffffff16906020019092919050505061092f565b005b6102ff610afa565b604051808260ff1660ff16815260200191505060405180910390f35b6103676004803603604081101561033157600080fd5b81019080803573ffffffffffffffffffffffffffffffffffffffff16906020019092919080359060200190929190505050610b11565b604051808215151515815260200191505060405180910390f35b6103ad6004803603602081101561039757600080fd5b8101908080359060200190929190505050610bc4565b6040518082815260200191505060405180910390f35b6103ef600480360360208110156103d957600080fd5b8101908080359060200190929190505050610bdc565b6040518082815260200191505060405180910390f35b61040d610bf4565b6040518082815260200191505060405180910390f35b61044f6004803603602081101561043957600080fd5b81019080803590602001909291905050506110ec565b6040518082815260200191505060405180910390f35b6104a76004803603602081101561047b57600080fd5b81019080803573ffffffffffffffffffffffffffffffffffffffff169060200190929190505050611104565b6040518082815260200191505060405180910390f35b6104c561114c565b6040518080602001828103825283818151815260200191508051906020019080838360005b838110156105055780820151818401526020810190506104ea565b50505050905090810190601f1680156105325780820380516001836020036101000a031916815260200191505b509250505060405180910390f35b61058c6004803603604081101561055657600080fd5b81019080803573ffffffffffffffffffffffffffffffffffffffff169060200190929190803590602001909291905050506111ee565b604051808215151515815260200191505060405180910390f35b6105f2600480360360408110156105bc57600080fd5b81019080803573ffffffffffffffffffffffffffffffffffffffff169060200190929190803590602001909291905050506112bb565b604051808215151515815260200191505060405180910390f35b61066e6004803603604081101561062257600080fd5b81019080803573ffffffffffffffffffffffffffffffffffffffff169060200190929190803573ffffffffffffffffffffffffffffffffffffffff1690602001909291905050506112d9565b6040518082815260200191505060405180910390f35b6106f06004803603606081101561069a57600080fd5b81019080803573ffffffffffffffffffffffffffffffffffffffff169060200190929190803573ffffffffffffffffffffffffffffffffffffffff16906020019092919080359060200190929190505050611360565b604051808215151515815260200191505060405180910390f35b6107406004803603604081101561072057600080fd5b810190808035906020019092919080359060200190929190505050611378565b005b61074a61143a565b604051808273ffffffffffffffffffffffffffffffffffffffff1673ffffffffffffffffffffffffffffffffffffffff16815260200191505060405180910390f35b606060038054600181600116156101000203166002900480601f0160208091040260200160405190810160405280929190818152602001828054600181600116156101000203166002900480156108245780601f106107f957610100808354040283529160200191610824565b820191906000526020600020905b81548152906001019060200180831161080757829003601f168201915b5050505050905090565b600061084261083b611460565b8484611468565b6001905092915050565b6000600254905090565b600061086384848461165f565b6109248461086f611460565b61091f8560405180606001604052806028815260200161226060289139600160008b73ffffffffffffffffffffffffffffffffffffffff1673ffffffffffffffffffffffffffffffffffffffff16815260200190815260200160002060006108d5611460565b73ffffffffffffffffffffffffffffffffffffffff1673ffffffffffffffffffffffffffffffffffffffff168152602001908152602001600020546119209092919063ffffffff16565b611468565b600190509392505050565b600073ffffffffffffffffffffffffffffffffffffffff16600860009054906101000a900473ffffffffffffffffffffffffffffffffffffffff1673ffffffffffffffffffffffffffffffffffffffff16146109f3576040517f08c379a000000000000000000000000000000000000000000000000000000000815260040180806020018281038252600b8152602001807f416c72656164792073657400000000000000000000000000000000000000000081525060200191505060405180910390fd5b600560019054906101000a900473ffffffffffffffffffffffffffffffffffffffff1673ffffffffffffffffffffffffffffffffffffffff163373ffffffffffffffffffffffffffffffffffffffff1614610ab6576040517f08c379a000000000000000000000000000000000000000000000000000000000815260040180806020018281038252600e8152602001807f4e6f7420617574686f726973656400000000000000000000000000000000000081525060200191505060405180910390fd5b80600860006101000a81548173ffffffffffffffffffffffffffffffffffffffff021916908373ffffffffffffffffffffffffffffffffffffffff16021790555050565b6000600560009054906101000a900460ff16905090565b6000610bba610b1e611460565b84610bb58560016000610b2f611460565b73ffffffffffffffffffffffffffffffffffffffff1673ffffffffffffffffffffffffffffffffffffffff16815260200190815260200160002060008973ffffffffffffffffffffffffffffffffffffffff1673ffffffffffffffffffffffffffffffffffffffff168152602001908152602001600020546119e090919063ffffffff16565b611468565b6001905092915050565b60096020528060005260406000206000915090505481565b60076020528060005260406000206000915090505481565b60008073ffffffffffffffffffffffffffffffffffffffff16600860009054906101000a900473ffffffffffffffffffffffffffffffffffffffff1673ffffffffffffffffffffffffffffffffffffffff161415610c9d576040517f08c379a00000000000000000000000000000000000000000000000000000000081526004018080602001828103825260398152602001806121aa6039913960400191505060405180910390fd5b6000600860009054906101000a900473ffffffffffffffffffffffffffffffffffffffff1673ffffffffffffffffffffffffffffffffffffffff166370a08231336040518263ffffffff1660e01b8152600401808273ffffffffffffffffffffffffffffffffffffffff1673ffffffffffffffffffffffffffffffffffffffff16815260200191505060206040518083038186803b158015610d3e57600080fd5b505afa158015610d52573d6000803e3d6000fd5b505050506040513d6020811015610d6857600080fd5b81019080805190602001909291905050509050600080905060008090505b82811015611014576000600860009054906101000a900473ffffffffffffffffffffffffffffffffffffffff1673ffffffffffffffffffffffffffffffffffffffff16632f745c5933846040518363ffffffff1660e01b8152600401808373ffffffffffffffffffffffffffffffffffffffff1673ffffffffffffffffffffffffffffffffffffffff1681526020018281526020019250505060206040518083038186803b158015610e3757600080fd5b505afa158015610e4b573d6000803e3d6000fd5b505050506040513d6020811015610e6157600080fd5b810190808051906020019092919050505090503373ffffffffffffffffffffffffffffffffffffffff16600860009054906101000a900473ffffffffffffffffffffffffffffffffffffffff1673ffffffffffffffffffffffffffffffffffffffff16636352211e836040518263ffffffff1660e01b81526004018082815260200191505060206040518083038186803b158015610efe57600080fd5b505afa158015610f12573d6000803e3d6000fd5b505050506040513d6020811015610f2857600080fd5b810190808051906020019092919050505073ffffffffffffffffffffffffffffffffffffffff1614610fc2576040517f08c379a00000000000000000000000000000000000000000000000000000000081526004018080602001828103825260178152602001807f53656e646572206973206e6f7420746865206f776e657200000000000000000081525060200191505060405180910390fd5b6000610fcd82611a68565b905060008114610fed57610fea81856119e090919063ffffffff16565b93505b42600960008481526020019081526020016000208190555050508080600101915050610d86565b50600081141561108c576040517f08c379a00000000000000000000000000000000000000000000000000000000081526004018080602001828103825260128152602001807f4e6f20616363756d756c6174656420494354000000000000000000000000000081525060200191505060405180910390fd5b6110963382611f4e565b3373ffffffffffffffffffffffffffffffffffffffff167fcf90cf38909cf403e9a6b19be28f518cafff82c84df42f7baaa56d1a607663cd826040518082815260200191505060405180910390a2809250505090565b600a6020528060005260406000206000915090505481565b60008060008373ffffffffffffffffffffffffffffffffffffffff1673ffffffffffffffffffffffffffffffffffffffff168152602001908152602001600020549050919050565b606060048054600181600116156101000203166002900480601f0160208091040260200160405190810160405280929190818152602001828054600181600116156101000203166002900480156111e45780601f106111b9576101008083540402835291602001916111e4565b820191906000526020600020905b8154815290600101906020018083116111c757829003601f168201915b5050505050905090565b60006112b16111fb611460565b846112ac856040518060600160405280602581526020016122f46025913960016000611225611460565b73ffffffffffffffffffffffffffffffffffffffff1673ffffffffffffffffffffffffffffffffffffffff16815260200190815260200160002060008a73ffffffffffffffffffffffffffffffffffffffff1673ffffffffffffffffffffffffffffffffffffffff168152602001908152602001600020546119209092919063ffffffff16565b611468565b6001905092915050565b60006112cf6112c8611460565b848461165f565b6001905092915050565b6000600160008473ffffffffffffffffffffffffffffffffffffffff1673ffffffffffffffffffffffffffffffffffffffff16815260200190815260200160002060008373ffffffffffffffffffffffffffffffffffffffff1673ffffffffffffffffffffffffffffffffffffffff16815260200190815260200160002054905092915050565b600061136d848484611468565b600190509392505050565b600860009054906101000a900473ffffffffffffffffffffffffffffffffffffffff1673ffffffffffffffffffffffffffffffffffffffff163373ffffffffffffffffffffffffffffffffffffffff161461141e576040517f08c379a00000000000000000000000000000000000000000000000000000000081526004018080602001828103825260298152602001806122376029913960400191505060405180910390fd5b8060076000848152602001908152602001600020819055505050565b600560019054906101000a900473ffffffffffffffffffffffffffffffffffffffff1681565b600033905090565b600073ffffffffffffffffffffffffffffffffffffffff168373ffffffffffffffffffffffffffffffffffffffff1614156114ee576040517f08c379a00000000000000000000000000000000000000000000000000000000081526004018080602001828103825260248152602001806122d06024913960400191505060405180910390fd5b600073ffffffffffffffffffffffffffffffffffffffff168273ffffffffffffffffffffffffffffffffffffffff161415611574576040517f08c379a00000000000000000000000000000000000000000000000000000000081526004018080602001828103825260228152602001806121886022913960400191505060405180910390fd5b80600160008573ffffffffffffffffffffffffffffffffffffffff1673ffffffffffffffffffffffffffffffffffffffff16815260200190815260200160002060008473ffffffffffffffffffffffffffffffffffffffff1673ffffffffffffffffffffffffffffffffffffffff168152602001908152602001600020819055508173ffffffffffffffffffffffffffffffffffffffff168373ffffffffffffffffffffffffffffffffffffffff167f8c5be1e5ebec7d5bd14f71427d1e84f3dd0314c0f7b2291e5b200ac8c7c3b925836040518082815260200191505060405180910390a3505050565b600073ffffffffffffffffffffffffffffffffffffffff168373ffffffffffffffffffffffffffffffffffffffff1614156116e5576040517f08c379a00000000000000000000000000000000000000000000000000000000081526004018080602001828103825260258152602001806122ab6025913960400191505060405180910390fd5b600073ffffffffffffffffffffffffffffffffffffffff168273ffffffffffffffffffffffffffffffffffffffff16141561176b576040517f08c379a00000000000000000000000000000000000000000000000000000000081526004018080602001828103825260238152602001806121656023913960400191505060405180910390fd5b611776838383612115565b6117e181604051806060016040528060268152602001612211602691396000808773ffffffffffffffffffffffffffffffffffffffff1673ffffffffffffffffffffffffffffffffffffffff168152602001908152602001600020546119209092919063ffffffff16565b6000808573ffffffffffffffffffffffffffffffffffffffff1673ffffffffffffffffffffffffffffffffffffffff16815260200190815260200160002081905550611874816000808573ffffffffffffffffffffffffffffffffffffffff1673ffffffffffffffffffffffffffffffffffffffff168152602001908152602001600020546119e090919063ffffffff16565b6000808473ffffffffffffffffffffffffffffffffffffffff1673ffffffffffffffffffffffffffffffffffffffff168152602001908152602001600020819055508173ffffffffffffffffffffffffffffffffffffffff168373ffffffffffffffffffffffffffffffffffffffff167fddf252ad1be2c89b69c2b068fc378daa952ba7f163c4a11628f55a4df523b3ef836040518082815260200191505060405180910390a3505050565b60008383111582906119cd576040517f08c379a00000000000000000000000000000000000000000000000000000000081526004018080602001828103825283818151815260200191508051906020019080838360005b83811015611992578082015181840152602081019050611977565b50505050905090810190601f1680156119bf5780820380516001836020036101000a031916815260200191505b509250505060405180910390fd5b5060008385039050809150509392505050565b600080828401905083811015611a5e576040517f08c379a000000000000000000000000000000000000000000000000000000000815260040180806020018281038252601b8152602001807f536166654d6174683a206164646974696f6e206f766572666c6f77000000000081525060200191505060405180910390fd5b8091505092915050565b600080600760008481526020019081526020016000205411611ad5576040517f08c379a000000000000000000000000000000000000000000000000000000000815260040180806020018281038252602e8152602001806121e3602e913960400191505060405180910390fd5b6000611afd60076000858152602001908152602001600020544261211a90919063ffffffff16565b9050600080600a60008681526020019081526020016000205411611b22576000611b37565b600a6000858152602001908152602001600020545b9050610190811115611b94576040517f08c379a00000000000000000000000000000000000000000000000000000000081526004018080602001828103825260238152602001806122886023913960400191505060405180910390fd5b6101908210611ba35761019091505b60008060648411611bd2576008600a84860381611bbc57fe5b04029150600a8481611bca57fe5b069050611f1e565b60c88411611c74576064831015611c4f576000600a8460640381611bf257fe5b0614611c24576004600a6064860381611c0757fe5b0402600880600a8660640381611c1957fe5b040201019150611c4a565b6004600a6064860381611c3357fe5b04026008600a8560640381611c4457fe5b04020191505b611c62565b6004600a84860381611c5d57fe5b040291505b600a8481611c6c57fe5b069050611f1d565b61012c8411611d93576064831015611cf8576000600a8460640381611c9557fe5b0614611cca576002600a60c8860381611caa57fe5b04026028600880600a8760640381611cbe57fe5b04020101019150611cf3565b6002600a60c8860381611cd957fe5b040260286008600a8660640381611cec57fe5b0402010191505b611d81565b60c8831015611d6d576000600a8460c80381611d1057fe5b0614611d42576002600a60c8860381611d2557fe5b0402600480600a8660c80381611d3757fe5b040201019150611d68565b6002600a60c8860381611d5157fe5b04026004600a8560c80381611d6257fe5b04020191505b611d80565b6002600a84860381611d7b57fe5b040291505b5b600a8481611d8b57fe5b069050611f1c565b6064831015611e10576000600a8460640381611dab57fe5b0614611de157600a61012c850381611dbf57fe5b0460146028600880600a8860640381611dd457fe5b0402010101019150611e0b565b600a61012c850381611def57fe5b04601460286008600a8760640381611e0357fe5b040201010191505b611f0e565b60c8831015611e87576000600a8460c80381611e2857fe5b0614611e5b57600a61012c850381611e3c57fe5b046014600480600a8760c80381611e4f57fe5b04020101019150611e82565b600a61012c850381611e6957fe5b0460146004600a8660c80381611e7b57fe5b0402010191505b611f0d565b61012c831015611efc576000600a8461012c0381611ea157fe5b0614611ed257600a61012c850381611eb557fe5b04600280600a8661012c0381611ec757fe5b040201019150611ef7565b600a61012c850381611ee057fe5b046002600a8561012c0381611ef157fe5b04020191505b611f0c565b600a83850381611f0857fe5b0491505b5b5b600a8481611f1857fe5b0690505b5b5b808403600a600088815260200190815260200160002081905550670de0b6b3a76400008202945050505050919050565b600073ffffffffffffffffffffffffffffffffffffffff168273ffffffffffffffffffffffffffffffffffffffff161415611ff1576040517f08c379a000000000000000000000000000000000000000000000000000000000815260040180806020018281038252601f8152602001807f45524332303a206d696e7420746f20746865207a65726f20616464726573730081525060200191505060405180910390fd5b611ffd60008383612115565b612012816002546119e090919063ffffffff16565b600281905550612069816000808573ffffffffffffffffffffffffffffffffffffffff1673ffffffffffffffffffffffffffffffffffffffff168152602001908152602001600020546119e090919063ffffffff16565b6000808473ffffffffffffffffffffffffffffffffffffffff1673ffffffffffffffffffffffffffffffffffffffff168152602001908152602001600020819055508173ffffffffffffffffffffffffffffffffffffffff16600073ffffffffffffffffffffffffffffffffffffffff167fddf252ad1be2c89b69c2b068fc378daa952ba7f163c4a11628f55a4df523b3ef836040518082815260200191505060405180910390a35050565b505050565b600061215c83836040518060400160405280601e81526020017f536166654d6174683a207375627472616374696f6e206f766572666c6f770000815250611920565b90509291505056fe45524332303a207472616e7366657220746f20746865207a65726f206164647265737345524332303a20617070726f766520746f20746865207a65726f20616464726573734e4654206164647265737320776173206e6f742073657420647572696e67206465706c6f796d656e74206f662074686520636f6e74726163744e4654206973206e6f74206d696e7465642079657420666f722074686520737570706c69656420746f6b656e494445524332303a207472616e7366657220616d6f756e7420657863656564732062616c616e63654f6e6c79204c65644e465420636f6e74726163742063616e20736574206269727468206f66204e465445524332303a207472616e7366657220616d6f756e74206578636565647320616c6c6f77616e6365416c6c2049435420617265206578686175736574656420666f722074686973204e465445524332303a207472616e736665722066726f6d20746865207a65726f206164647265737345524332303a20617070726f76652066726f6d20746865207a65726f206164647265737345524332303a2064656372656173656420616c6c6f77616e63652062656c6f77207a65726fa2646970667358221220df17e6f6ffe0e90839b70c7301190733d59d9986a0b4d28c5edb956268c7ad2b64736f6c63430006060033",
	"immutableReferences": {},
	"source": "// SPDX-License-Identifier: MIT\r\npragma solidity ^0.6.6;\r\n\r\nimport \"@openzeppelin/contracts/token/ERC20/ERC20.sol\";\r\n\r\ninterface NFT721 {\r\n    /**\r\n     * @dev Emitted when `tokenId` token is transferred from `from` to `to`.\r\n     */\r\n    event Transfer(\r\n        address indexed from,\r\n        address indexed to,\r\n        uint256 indexed tokenId\r\n    );\r\n\r\n    /**\r\n     * @dev Emitted when `owner` enables `approved` to manage the `tokenId` token.\r\n     */\r\n    event Approval(\r\n        address indexed owner,\r\n        address indexed approved,\r\n        uint256 indexed tokenId\r\n    );\r\n\r\n    /**\r\n     * @dev Emitted when `owner` enables or disables (`approved`) `operator` to manage all of its assets.\r\n     */\r\n    event ApprovalForAll(\r\n        address indexed owner,\r\n        address indexed operator,\r\n        bool approved\r\n    );\r\n\r\n    /**\r\n     * @dev Returns the number of tokens in ``owner``'s account.\r\n     */\r\n    function balanceOf(address owner) external view returns (uint256 balance);\r\n\r\n    function tokenOfOwnerByIndex(address owner, uint256 index)\r\n        external\r\n        view\r\n        returns (uint256);\r\n\r\n    /**\r\n     * @dev Returns the owner of the `tokenId` token.\r\n     *\r\n     * Requirements:\r\n     *\r\n     * - `tokenId` must exist.\r\n     */\r\n    function ownerOf(uint256 tokenId) external view returns (address owner);\r\n\r\n    /**\r\n     * @dev Safely transfers `tokenId` token from `from` to `to`, checking first that contract recipients\r\n     * are aware of the ERC721 protocol to prevent tokens from being forever locked.\r\n     *\r\n     * Requirements:\r\n     *\r\n     * - `from` cannot be the zero address.\r\n     * - `to` cannot be the zero address.\r\n     * - `tokenId` token must exist and be owned by `from`.\r\n     * - If the caller is not `from`, it must be have been allowed to move this token by either {approve} or {setApprovalForAll}.\r\n     * - If `to` refers to a smart contract, it must implement {NFT721Receiver-onERC721Received}, which is called upon a safe transfer.\r\n     *\r\n     * Emits a {Transfer} event.\r\n     */\r\n    function safeTransferFrom(\r\n        address from,\r\n        address to,\r\n        uint256 tokenId\r\n    ) external;\r\n\r\n    /**\r\n     * @dev Transfers `tokenId` token from `from` to `to`.\r\n     *\r\n     * WARNING: Usage of this method is discouraged, use {safeTransferFrom} whenever possible.\r\n     *\r\n     * Requirements:\r\n     *\r\n     * - `from` cannot be the zero address.\r\n     * - `to` cannot be the zero address.\r\n     * - `tokenId` token must be owned by `from`.\r\n     * - If the caller is not `from`, it must be approved to move this token by either {approve} or {setApprovalForAll}.\r\n     *\r\n     * Emits a {Transfer} event.\r\n     */\r\n    function transferFrom(\r\n        address from,\r\n        address to,\r\n        uint256 tokenId\r\n    ) external;\r\n\r\n    /**\r\n     * @dev Gives permission to `to` to transfer `tokenId` token to another account.\r\n     * The approval is cleared when the token is transferred.\r\n     *\r\n     * Only a single account can be approved at a time, so approving the zero address clears previous approvals.\r\n     *\r\n     * Requirements:\r\n     *\r\n     * - The caller must own the token or be an approved operator.\r\n     * - `tokenId` must exist.\r\n     *\r\n     * Emits an {Approval} event.\r\n     */\r\n    function approve(address to, uint256 tokenId) external;\r\n\r\n    /**\r\n     * @dev Returns the account approved for `tokenId` token.\r\n     *\r\n     * Requirements:\r\n     *\r\n     * - `tokenId` must exist.\r\n     */\r\n    function getApproved(uint256 tokenId)\r\n        external\r\n        view\r\n        returns (address operator);\r\n\r\n    /**\r\n     * @dev Approve or remove `operator` as an operator for the caller.\r\n     * Operators can call {transferFrom} or {safeTransferFrom} for any token owned by the caller.\r\n     *\r\n     * Requirements:\r\n     *\r\n     * - The `operator` cannot be the caller.\r\n     *\r\n     * Emits an {ApprovalForAll} event.\r\n     */\r\n    function setApprovalForAll(address operator, bool _approved) external;\r\n\r\n    /**\r\n     * @dev Returns if the `operator` is allowed to manage all of the assets of `owner`.\r\n     *\r\n     * See {setApprovalForAll}\r\n     */\r\n    function isApprovedForAll(address owner, address operator)\r\n        external\r\n        view\r\n        returns (bool);\r\n\r\n    /**\r\n     * @dev Safely transfers `tokenId` token from `from` to `to`.\r\n     *\r\n     * Requirements:\r\n     *\r\n     * - `from` cannot be the zero address.\r\n     * - `to` cannot be the zero address.\r\n     * - `tokenId` token must exist and be owned by `from`.\r\n     * - If the caller is not `from`, it must be approved to move this token by either {approve} or {setApprovalForAll}.\r\n     * - If `to` refers to a smart contract, it must implement {NFT721Receiver-onERC721Received}, which is called upon a safe transfer.\r\n     *\r\n     * Emits a {Transfer} event.\r\n     */\r\n    function safeTransferFrom(\r\n        address from,\r\n        address to,\r\n        uint256 tokenId,\r\n        bytes calldata data\r\n    ) external;\r\n}\r\n\r\ncontract IntensityChangeToken is ERC20 {\r\n    using SafeMath for uint256;\r\n\r\n    address public admin;\r\n\r\n    mapping(address => uint256) balances;\r\n\r\n    mapping(uint256 => uint256) public birthOfNFT;\r\n\r\n    address private LedNFTAdderess;\r\n    mapping(uint256 => uint256) public lastClaimedNFTIdToTimeMapping;\r\n    mapping(uint256 => uint256) public lastClaimedNFTIdToAgeMapping;\r\n\r\n    event ClaimEvent(address indexed claimedAddress, uint256 claimAmount);\r\n\r\n    /**\r\n     * Constructor function\r\n     * Initializes contract with the creator of the contract\r\n     */\r\n    constructor() public ERC20(\"IntensityChangeToken\", \"ICT\") {\r\n        admin = msg.sender;\r\n    }\r\n\r\n    function setBirthOfNFT(uint256 _tokenId, uint256 _time) external {\r\n        //These checks will avoid anyone to call this method explicitly\r\n        require(\r\n            msg.sender == LedNFTAdderess,\r\n            \"Only LedNFT contract can set birth of NFT\"\r\n        );\r\n\r\n        birthOfNFT[_tokenId] = _time;\r\n    }\r\n\r\n    /**\r\n     * @dev Claim minted ICTs\r\n     */\r\n    function claim() external returns (uint256) {\r\n        require(\r\n            LedNFTAdderess != address(0),\r\n            \"NFT address was not set during deployment of the contract\"\r\n        );\r\n        uint256 totalTokensOfOwner = NFT721(LedNFTAdderess).balanceOf(\r\n            msg.sender\r\n        );\r\n\r\n        uint256 totalClaimQty = 0;\r\n        for (uint256 i = 0; i < totalTokensOfOwner; i++) {\r\n            uint256 tokenId = NFT721(LedNFTAdderess).tokenOfOwnerByIndex(\r\n                msg.sender,\r\n                i\r\n            );\r\n            require(\r\n                NFT721(LedNFTAdderess).ownerOf(tokenId) == msg.sender,\r\n                \"Sender is not the owner\"\r\n            );\r\n\r\n            uint256 claimQty = accumulated(tokenId);\r\n            if (claimQty != 0) {\r\n                totalClaimQty = totalClaimQty.add(claimQty);\r\n            }\r\n            lastClaimedNFTIdToTimeMapping[tokenId] = block.timestamp;\r\n        }\r\n        require(totalClaimQty != 0, \"No accumulated ICT\");\r\n        _mint(msg.sender, totalClaimQty);\r\n        emit ClaimEvent(msg.sender, totalClaimQty);\r\n        return totalClaimQty;\r\n    }\r\n\r\n    /**\r\n     * @dev It is set right after deployment.\r\n     */\r\n    function setLedNFTAddress(address _nftAddress) external {\r\n        require(LedNFTAdderess == address(0), \"Already set\");\r\n        require(msg.sender == admin, \"Not authorised\");\r\n\r\n        LedNFTAdderess = _nftAddress;\r\n    }\r\n\r\n    //accumulated ICT token for a particular tokenId\r\n    function accumulated(uint256 _tokenId) private returns (uint256) {\r\n        require(\r\n            birthOfNFT[_tokenId] > 0,\r\n            \"NFT is not minted yet for the supplied tokenID\"\r\n        );\r\n\r\n        uint256 ageOfNFT = (block.timestamp).sub(birthOfNFT[_tokenId]);\r\n        uint256 previousClaimAge = lastClaimedNFTIdToAgeMapping[_tokenId] > 0\r\n            ? lastClaimedNFTIdToAgeMapping[_tokenId]\r\n            : 0;\r\n\r\n        require(previousClaimAge <= 400, \"All ICT are exhauseted for this NFT\");\r\n\r\n        if (ageOfNFT >= 400) {\r\n            ageOfNFT = 400;\r\n        }\r\n\r\n        uint256 claimedAmount;\r\n        uint256 mod;\r\n        if (ageOfNFT <= 100) {\r\n            claimedAmount = ((ageOfNFT - previousClaimAge) / 10) * 8;\r\n            mod = ageOfNFT % 10;\r\n        } else if (ageOfNFT <= 200) {\r\n            if (previousClaimAge < 100) {\r\n                if ((100 - previousClaimAge) % 10 != 0) {\r\n                    claimedAmount =\r\n                        ((100 - previousClaimAge) / 10) *\r\n                        8 +\r\n                        8 +\r\n                        ((ageOfNFT - 100) / 10) *\r\n                        4;\r\n                } else {\r\n                    claimedAmount =\r\n                        ((100 - previousClaimAge) / 10) *\r\n                        8 +\r\n                        ((ageOfNFT - 100) / 10) *\r\n                        4;\r\n                }\r\n            } else {\r\n                claimedAmount = ((ageOfNFT - previousClaimAge) / 10) * 4;\r\n            }\r\n            mod = ageOfNFT % 10;\r\n        } else if (ageOfNFT <= 300) {\r\n            if (previousClaimAge < 100) {\r\n                if ((100 - previousClaimAge) % 10 != 0) {\r\n                    claimedAmount =\r\n                        ((100 - previousClaimAge) / 10) *\r\n                        8 +\r\n                        8 +\r\n                        40 +\r\n                        ((ageOfNFT - 200) / 10) *\r\n                        2;\r\n                } else {\r\n                    claimedAmount =\r\n                        ((100 - previousClaimAge) / 10) *\r\n                        8 +\r\n                        40 +\r\n                        ((ageOfNFT - 200) / 10) *\r\n                        2;\r\n                }\r\n            } else if (previousClaimAge < 200) {\r\n                if ((200 - previousClaimAge) % 10 != 0) {\r\n                    claimedAmount =\r\n                        ((200 - previousClaimAge) / 10) *\r\n                        4 +\r\n                        4 +\r\n                        ((ageOfNFT - 200) / 10) *\r\n                        2;\r\n                } else {\r\n                    claimedAmount =\r\n                        ((200 - previousClaimAge) / 10) *\r\n                        4 +\r\n                        ((ageOfNFT - 200) / 10) *\r\n                        2;\r\n                }\r\n            } else {\r\n                claimedAmount = ((ageOfNFT - previousClaimAge) / 10) * 2;\r\n            }\r\n            mod = ageOfNFT % 10;\r\n        } else {\r\n            if (previousClaimAge < 100) {\r\n                if ((100 - previousClaimAge) % 10 != 0) {\r\n                    claimedAmount =\r\n                        ((100 - previousClaimAge) / 10) *\r\n                        8 +\r\n                        8 +\r\n                        40 +\r\n                        20 +\r\n                        ((ageOfNFT - 300) / 10);\r\n                } else {\r\n                    claimedAmount =\r\n                        ((100 - previousClaimAge) / 10) *\r\n                        8 +\r\n                        40 +\r\n                        20 +\r\n                        ((ageOfNFT - 300) / 10);\r\n                }\r\n            } else if (previousClaimAge < 200) {\r\n                if ((200 - previousClaimAge) % 10 != 0) {\r\n                    claimedAmount =\r\n                        ((200 - previousClaimAge) / 10) *\r\n                        4 +\r\n                        4 +\r\n                        20 +\r\n                        ((ageOfNFT - 300) / 10);\r\n                } else {\r\n                    claimedAmount =\r\n                        ((200 - previousClaimAge) / 10) *\r\n                        4 +\r\n                        20 +\r\n                        ((ageOfNFT - 300) / 10);\r\n                }\r\n            } else if (previousClaimAge < 300) {\r\n                if ((300 - previousClaimAge) % 10 != 0) {\r\n                    claimedAmount =\r\n                        ((300 - previousClaimAge) / 10) *\r\n                        2 +\r\n                        2 +\r\n                        ((ageOfNFT - 300) / 10);\r\n                } else {\r\n                    claimedAmount =\r\n                        ((300 - previousClaimAge) / 10) *\r\n                        2 +\r\n                        ((ageOfNFT - 300) / 10);\r\n                }\r\n            } else {\r\n                claimedAmount = (ageOfNFT - previousClaimAge) / 10;\r\n            }\r\n            mod = ageOfNFT % 10;\r\n        }\r\n\r\n        lastClaimedNFTIdToAgeMapping[_tokenId] = ageOfNFT - mod;\r\n        return claimedAmount * 10**18;\r\n    }\r\n\r\n    //Approve the ICT: so that LED NFT contract can send those ICT on behalf of User while executing ChangeBlinkPattern\r\n    function approve(\r\n        address owner,\r\n        address spender,\r\n        uint256 amount\r\n    ) public returns (bool) {\r\n        _approve(owner, spender, amount);\r\n        return true;\r\n    }\r\n}",
	"sourcePath": "D:/holon/NFT/nft-truffle/src/contracts/ICT.sol",
	"compiler": {
		"name": "solc",
		"version": "0.6.6+commit.6c089d02.Emscripten.clang"
	},
	"schemaVersion": "3.4.1",
	"updatedAt": "2022-04-14T21:20:35.444Z",
	"networkType": "ethereum",
	"devdoc": {
		"methods": {
			"allowance(address,address)": {
				"details": "See {IERC20-allowance}."
			},
			"approve(address,uint256)": {
				"details": "See {IERC20-approve}.     * Requirements:     * - `spender` cannot be the zero address."
			},
			"balanceOf(address)": {
				"details": "See {IERC20-balanceOf}."
			},
			"claim()": {
				"details": "Claim minted ICTs"
			},
			"decimals()": {
				"details": "Returns the number of decimals used to get its user representation. For example, if `decimals` equals `2`, a balance of `505` tokens should be displayed to a user as `5,05` (`505 / 10 ** 2`).     * Tokens usually opt for a value of 18, imitating the relationship between Ether and Wei. This is the value {ERC20} uses, unless {_setupDecimals} is called.     * NOTE: This information is only used for _display_ purposes: it in no way affects any of the arithmetic of the contract, including {IERC20-balanceOf} and {IERC20-transfer}."
			},
			"decreaseAllowance(address,uint256)": {
				"details": "Atomically decreases the allowance granted to `spender` by the caller.     * This is an alternative to {approve} that can be used as a mitigation for problems described in {IERC20-approve}.     * Emits an {Approval} event indicating the updated allowance.     * Requirements:     * - `spender` cannot be the zero address. - `spender` must have allowance for the caller of at least `subtractedValue`."
			},
			"increaseAllowance(address,uint256)": {
				"details": "Atomically increases the allowance granted to `spender` by the caller.     * This is an alternative to {approve} that can be used as a mitigation for problems described in {IERC20-approve}.     * Emits an {Approval} event indicating the updated allowance.     * Requirements:     * - `spender` cannot be the zero address."
			},
			"name()": {
				"details": "Returns the name of the token."
			},
			"setLedNFTAddress(address)": {
				"details": "It is set right after deployment."
			},
			"symbol()": {
				"details": "Returns the symbol of the token, usually a shorter version of the name."
			},
			"totalSupply()": {
				"details": "See {IERC20-totalSupply}."
			},
			"transfer(address,uint256)": {
				"details": "See {IERC20-transfer}.     * Requirements:     * - `recipient` cannot be the zero address. - the caller must have a balance of at least `amount`."
			},
			"transferFrom(address,address,uint256)": {
				"details": "See {IERC20-transferFrom}.     * Emits an {Approval} event indicating the updated allowance. This is not required by the EIP. See the note at the beginning of {ERC20};     * Requirements: - `sender` and `recipient` cannot be the zero address. - `sender` must have a balance of at least `amount`. - the caller must have allowance for ``sender``'s tokens of at least `amount`."
			}
		}
	},
	"userdoc": {
		"methods": {
			"constructor": "Constructor function Initializes contract with the creator of the contract"
		}
	}
}