{
  "contractName": "LedNFT",
  "abi": [
    {
      "inputs": [
        {
          "internalType": "address",
          "name": "_ictAddress",
          "type": "address"
        }
      ],
      "stateMutability": "nonpayable",
      "type": "constructor"
    },
    {
      "anonymous": false,
      "inputs": [
        {
          "indexed": true,
          "internalType": "address",
          "name": "owner",
          "type": "address"
        },
        {
          "indexed": true,
          "internalType": "address",
          "name": "approved",
          "type": "address"
        },
        {
          "indexed": true,
          "internalType": "uint256",
          "name": "tokenId",
          "type": "uint256"
        }
      ],
      "name": "Approval",
      "type": "event"
    },
    {
      "anonymous": false,
      "inputs": [
        {
          "indexed": true,
          "internalType": "address",
          "name": "owner",
          "type": "address"
        },
        {
          "indexed": true,
          "internalType": "address",
          "name": "operator",
          "type": "address"
        },
        {
          "indexed": false,
          "internalType": "bool",
          "name": "approved",
          "type": "bool"
        }
      ],
      "name": "ApprovalForAll",
      "type": "event"
    },
    {
      "anonymous": false,
      "inputs": [
        {
          "indexed": true,
          "internalType": "address",
          "name": "_owner",
          "type": "address"
        },
        {
          "indexed": true,
          "internalType": "uint256",
          "name": "_tokenId",
          "type": "uint256"
        }
      ],
      "name": "MintedNFT",
      "type": "event"
    },
    {
      "anonymous": false,
      "inputs": [
        {
          "indexed": true,
          "internalType": "address",
          "name": "from",
          "type": "address"
        },
        {
          "indexed": true,
          "internalType": "address",
          "name": "to",
          "type": "address"
        },
        {
          "indexed": true,
          "internalType": "uint256",
          "name": "tokenId",
          "type": "uint256"
        }
      ],
      "name": "Transfer",
      "type": "event"
    },
    {
      "inputs": [],
      "name": "BLINK_PATTERN_CHANGE_PRICE",
      "outputs": [
        {
          "internalType": "uint256",
          "name": "",
          "type": "uint256"
        }
      ],
      "stateMutability": "view",
      "type": "function",
      "constant": true
    },
    {
      "inputs": [],
      "name": "ICTContractAddress",
      "outputs": [
        {
          "internalType": "address",
          "name": "",
          "type": "address"
        }
      ],
      "stateMutability": "view",
      "type": "function",
      "constant": true
    },
    {
      "inputs": [],
      "name": "MAX_NFT_SUPPLY",
      "outputs": [
        {
          "internalType": "uint256",
          "name": "",
          "type": "uint256"
        }
      ],
      "stateMutability": "view",
      "type": "function",
      "constant": true
    },
    {
      "inputs": [
        {
          "internalType": "uint256",
          "name": "",
          "type": "uint256"
        }
      ],
      "name": "_tokenURIs",
      "outputs": [
        {
          "internalType": "string",
          "name": "",
          "type": "string"
        }
      ],
      "stateMutability": "view",
      "type": "function",
      "constant": true
    },
    {
      "inputs": [
        {
          "internalType": "address",
          "name": "to",
          "type": "address"
        },
        {
          "internalType": "uint256",
          "name": "tokenId",
          "type": "uint256"
        }
      ],
      "name": "approve",
      "outputs": [],
      "stateMutability": "nonpayable",
      "type": "function"
    },
    {
      "inputs": [
        {
          "internalType": "address",
          "name": "owner",
          "type": "address"
        }
      ],
      "name": "balanceOf",
      "outputs": [
        {
          "internalType": "uint256",
          "name": "",
          "type": "uint256"
        }
      ],
      "stateMutability": "view",
      "type": "function",
      "constant": true
    },
    {
      "inputs": [],
      "name": "baseURI",
      "outputs": [
        {
          "internalType": "string",
          "name": "",
          "type": "string"
        }
      ],
      "stateMutability": "view",
      "type": "function",
      "constant": true
    },
    {
      "inputs": [],
      "name": "endTime",
      "outputs": [
        {
          "internalType": "uint256",
          "name": "",
          "type": "uint256"
        }
      ],
      "stateMutability": "view",
      "type": "function",
      "constant": true
    },
    {
      "inputs": [
        {
          "internalType": "uint256",
          "name": "tokenId",
          "type": "uint256"
        }
      ],
      "name": "getApproved",
      "outputs": [
        {
          "internalType": "address",
          "name": "",
          "type": "address"
        }
      ],
      "stateMutability": "view",
      "type": "function",
      "constant": true
    },
    {
      "inputs": [
        {
          "internalType": "uint256",
          "name": "",
          "type": "uint256"
        }
      ],
      "name": "initialOwner",
      "outputs": [
        {
          "internalType": "address payable",
          "name": "",
          "type": "address"
        }
      ],
      "stateMutability": "view",
      "type": "function",
      "constant": true
    },
    {
      "inputs": [
        {
          "internalType": "address",
          "name": "owner",
          "type": "address"
        },
        {
          "internalType": "address",
          "name": "operator",
          "type": "address"
        }
      ],
      "name": "isApprovedForAll",
      "outputs": [
        {
          "internalType": "bool",
          "name": "",
          "type": "bool"
        }
      ],
      "stateMutability": "view",
      "type": "function",
      "constant": true
    },
    {
      "inputs": [],
      "name": "isMintingActive",
      "outputs": [
        {
          "internalType": "bool",
          "name": "",
          "type": "bool"
        }
      ],
      "stateMutability": "view",
      "type": "function",
      "constant": true
    },
    {
      "inputs": [
        {
          "internalType": "uint256",
          "name": "",
          "type": "uint256"
        },
        {
          "internalType": "uint256",
          "name": "",
          "type": "uint256"
        }
      ],
      "name": "ledNFTBlinkPattern",
      "outputs": [
        {
          "internalType": "uint256",
          "name": "",
          "type": "uint256"
        }
      ],
      "stateMutability": "view",
      "type": "function",
      "constant": true
    },
    {
      "inputs": [
        {
          "internalType": "address",
          "name": "",
          "type": "address"
        }
      ],
      "name": "mintCount",
      "outputs": [
        {
          "internalType": "uint256",
          "name": "",
          "type": "uint256"
        }
      ],
      "stateMutability": "view",
      "type": "function",
      "constant": true
    },
    {
      "inputs": [],
      "name": "name",
      "outputs": [
        {
          "internalType": "string",
          "name": "",
          "type": "string"
        }
      ],
      "stateMutability": "view",
      "type": "function",
      "constant": true
    },
    {
      "inputs": [
        {
          "internalType": "uint256",
          "name": "",
          "type": "uint256"
        }
      ],
      "name": "numNotAllowed",
      "outputs": [
        {
          "internalType": "bool",
          "name": "",
          "type": "bool"
        }
      ],
      "stateMutability": "view",
      "type": "function",
      "constant": true
    },
    {
      "inputs": [],
      "name": "owner",
      "outputs": [
        {
          "internalType": "address",
          "name": "",
          "type": "address"
        }
      ],
      "stateMutability": "view",
      "type": "function",
      "constant": true
    },
    {
      "inputs": [
        {
          "internalType": "uint256",
          "name": "tokenId",
          "type": "uint256"
        }
      ],
      "name": "ownerOf",
      "outputs": [
        {
          "internalType": "address",
          "name": "",
          "type": "address"
        }
      ],
      "stateMutability": "view",
      "type": "function",
      "constant": true
    },
    {
      "inputs": [
        {
          "internalType": "address",
          "name": "",
          "type": "address"
        }
      ],
      "name": "ownerTotalTokensMintCount",
      "outputs": [
        {
          "internalType": "uint256",
          "name": "",
          "type": "uint256"
        }
      ],
      "stateMutability": "view",
      "type": "function",
      "constant": true
    },
    {
      "inputs": [],
      "name": "p5jsGenerativeArtScript",
      "outputs": [
        {
          "internalType": "string",
          "name": "",
          "type": "string"
        }
      ],
      "stateMutability": "view",
      "type": "function",
      "constant": true
    },
    {
      "inputs": [
        {
          "internalType": "address",
          "name": "from",
          "type": "address"
        },
        {
          "internalType": "address",
          "name": "to",
          "type": "address"
        },
        {
          "internalType": "uint256",
          "name": "tokenId",
          "type": "uint256"
        }
      ],
      "name": "safeTransferFrom",
      "outputs": [],
      "stateMutability": "nonpayable",
      "type": "function"
    },
    {
      "inputs": [
        {
          "internalType": "address",
          "name": "from",
          "type": "address"
        },
        {
          "internalType": "address",
          "name": "to",
          "type": "address"
        },
        {
          "internalType": "uint256",
          "name": "tokenId",
          "type": "uint256"
        },
        {
          "internalType": "bytes",
          "name": "_data",
          "type": "bytes"
        }
      ],
      "name": "safeTransferFrom",
      "outputs": [],
      "stateMutability": "nonpayable",
      "type": "function"
    },
    {
      "inputs": [
        {
          "internalType": "address",
          "name": "operator",
          "type": "address"
        },
        {
          "internalType": "bool",
          "name": "approved",
          "type": "bool"
        }
      ],
      "name": "setApprovalForAll",
      "outputs": [],
      "stateMutability": "nonpayable",
      "type": "function"
    },
    {
      "inputs": [
        {
          "internalType": "bytes32",
          "name": "",
          "type": "bytes32"
        }
      ],
      "name": "skinOwner",
      "outputs": [
        {
          "internalType": "address",
          "name": "",
          "type": "address"
        }
      ],
      "stateMutability": "view",
      "type": "function",
      "constant": true
    },
    {
      "inputs": [
        {
          "internalType": "bytes32",
          "name": "",
          "type": "bytes32"
        }
      ],
      "name": "skinToPulse",
      "outputs": [
        {
          "internalType": "uint256",
          "name": "seed",
          "type": "uint256"
        }
      ],
      "stateMutability": "view",
      "type": "function",
      "constant": true
    },
    {
      "inputs": [
        {
          "internalType": "bytes4",
          "name": "interfaceId",
          "type": "bytes4"
        }
      ],
      "name": "supportsInterface",
      "outputs": [
        {
          "internalType": "bool",
          "name": "",
          "type": "bool"
        }
      ],
      "stateMutability": "view",
      "type": "function",
      "constant": true
    },
    {
      "inputs": [],
      "name": "symbol",
      "outputs": [
        {
          "internalType": "string",
          "name": "",
          "type": "string"
        }
      ],
      "stateMutability": "view",
      "type": "function",
      "constant": true
    },
    {
      "inputs": [
        {
          "internalType": "uint256",
          "name": "index",
          "type": "uint256"
        }
      ],
      "name": "tokenByIndex",
      "outputs": [
        {
          "internalType": "uint256",
          "name": "",
          "type": "uint256"
        }
      ],
      "stateMutability": "view",
      "type": "function",
      "constant": true
    },
    {
      "inputs": [
        {
          "internalType": "uint256",
          "name": "",
          "type": "uint256"
        }
      ],
      "name": "tokenHash",
      "outputs": [
        {
          "internalType": "bytes32",
          "name": "",
          "type": "bytes32"
        }
      ],
      "stateMutability": "view",
      "type": "function",
      "constant": true
    },
    {
      "inputs": [
        {
          "internalType": "address",
          "name": "owner",
          "type": "address"
        },
        {
          "internalType": "uint256",
          "name": "index",
          "type": "uint256"
        }
      ],
      "name": "tokenOfOwnerByIndex",
      "outputs": [
        {
          "internalType": "uint256",
          "name": "",
          "type": "uint256"
        }
      ],
      "stateMutability": "view",
      "type": "function",
      "constant": true
    },
    {
      "inputs": [
        {
          "internalType": "uint256",
          "name": "",
          "type": "uint256"
        }
      ],
      "name": "tokenSaleData",
      "outputs": [
        {
          "internalType": "bool",
          "name": "forSale",
          "type": "bool"
        },
        {
          "internalType": "uint256",
          "name": "price",
          "type": "uint256"
        }
      ],
      "stateMutability": "view",
      "type": "function",
      "constant": true
    },
    {
      "inputs": [
        {
          "internalType": "uint256",
          "name": "",
          "type": "uint256"
        },
        {
          "internalType": "uint256",
          "name": "",
          "type": "uint256"
        }
      ],
      "name": "tokenSkin",
      "outputs": [
        {
          "internalType": "bytes32",
          "name": "",
          "type": "bytes32"
        }
      ],
      "stateMutability": "view",
      "type": "function",
      "constant": true
    },
    {
      "inputs": [
        {
          "internalType": "uint256",
          "name": "tokenId",
          "type": "uint256"
        }
      ],
      "name": "tokenURI",
      "outputs": [
        {
          "internalType": "string",
          "name": "",
          "type": "string"
        }
      ],
      "stateMutability": "view",
      "type": "function",
      "constant": true
    },
    {
      "inputs": [],
      "name": "totalSupply",
      "outputs": [
        {
          "internalType": "uint256",
          "name": "",
          "type": "uint256"
        }
      ],
      "stateMutability": "view",
      "type": "function",
      "constant": true
    },
    {
      "inputs": [
        {
          "internalType": "address",
          "name": "from",
          "type": "address"
        },
        {
          "internalType": "address",
          "name": "to",
          "type": "address"
        },
        {
          "internalType": "uint256",
          "name": "tokenId",
          "type": "uint256"
        }
      ],
      "name": "transferFrom",
      "outputs": [],
      "stateMutability": "nonpayable",
      "type": "function"
    },
    {
      "inputs": [
        {
          "internalType": "string",
          "name": "_script",
          "type": "string"
        }
      ],
      "name": "setP5JS",
      "outputs": [],
      "stateMutability": "nonpayable",
      "type": "function"
    },
    {
      "inputs": [
        {
          "internalType": "uint256",
          "name": "_endTimeLimit",
          "type": "uint256"
        }
      ],
      "name": "startTimerForNFTMinting",
      "outputs": [],
      "stateMutability": "nonpayable",
      "type": "function"
    },
    {
      "inputs": [
        {
          "internalType": "bool",
          "name": "_status",
          "type": "bool"
        }
      ],
      "name": "pauseUnpauseMinting",
      "outputs": [],
      "stateMutability": "nonpayable",
      "type": "function"
    },
    {
      "inputs": [
        {
          "internalType": "uint256",
          "name": "_nos",
          "type": "uint256"
        }
      ],
      "name": "getNFTPrice",
      "outputs": [
        {
          "internalType": "uint256",
          "name": "",
          "type": "uint256"
        }
      ],
      "stateMutability": "view",
      "type": "function",
      "constant": true
    },
    {
      "inputs": [],
      "name": "getContractBalance",
      "outputs": [
        {
          "internalType": "uint256",
          "name": "",
          "type": "uint256"
        }
      ],
      "stateMutability": "view",
      "type": "function",
      "constant": true
    },
    {
      "inputs": [
        {
          "internalType": "uint256",
          "name": "_tokenId",
          "type": "uint256"
        }
      ],
      "name": "getBlinkPatternOfTokenID",
      "outputs": [
        {
          "internalType": "uint256[]",
          "name": "",
          "type": "uint256[]"
        }
      ],
      "stateMutability": "view",
      "type": "function",
      "constant": true
    },
    {
      "inputs": [
        {
          "internalType": "uint256",
          "name": "_nos",
          "type": "uint256"
        }
      ],
      "name": "mintToken",
      "outputs": [],
      "stateMutability": "payable",
      "type": "function",
      "payable": true
    },
    {
      "inputs": [
        {
          "internalType": "uint256",
          "name": "_tokenId",
          "type": "uint256"
        },
        {
          "internalType": "uint256[30]",
          "name": "_newPattern",
          "type": "uint256[30]"
        }
      ],
      "name": "changeLEDBlinkPattern",
      "outputs": [],
      "stateMutability": "nonpayable",
      "type": "function"
    },
    {
      "inputs": [],
      "name": "withdrawCollectedEther",
      "outputs": [],
      "stateMutability": "nonpayable",
      "type": "function"
    },
    {
      "inputs": [
        {
          "internalType": "address",
          "name": "_address",
          "type": "address"
        }
      ],
      "name": "mintedTokens",
      "outputs": [
        {
          "internalType": "uint256",
          "name": "",
          "type": "uint256"
        }
      ],
      "stateMutability": "view",
      "type": "function",
      "constant": true
    },
    {
      "inputs": [
        {
          "internalType": "uint256",
          "name": "_tokenId",
          "type": "uint256"
        }
      ],
      "name": "getPriceOfToken",
      "outputs": [
        {
          "internalType": "uint256",
          "name": "",
          "type": "uint256"
        }
      ],
      "stateMutability": "view",
      "type": "function",
      "constant": true
    },
    {
      "inputs": [],
      "name": "allMintedId",
      "outputs": [
        {
          "internalType": "uint256[]",
          "name": "",
          "type": "uint256[]"
        }
      ],
      "stateMutability": "view",
      "type": "function",
      "constant": true
    },
    {
      "inputs": [
        {
          "internalType": "uint256",
          "name": "_tokenId",
          "type": "uint256"
        }
      ],
      "name": "getSkinsOfToken",
      "outputs": [
        {
          "internalType": "bytes32[]",
          "name": "",
          "type": "bytes32[]"
        }
      ],
      "stateMutability": "view",
      "type": "function",
      "constant": true
    },
    {
      "inputs": [
        {
          "internalType": "bytes32",
          "name": "_skin",
          "type": "bytes32"
        }
      ],
      "name": "getpulseNSeed",
      "outputs": [
        {
          "internalType": "uint256[]",
          "name": "",
          "type": "uint256[]"
        },
        {
          "internalType": "uint256",
          "name": "",
          "type": "uint256"
        }
      ],
      "stateMutability": "view",
      "type": "function",
      "constant": true
    }
  ],
  "bytecode": "0x60806040526000600f553480156200001657600080fd5b5060405162005e6638038062005e66833981810160405260208110156200003c57600080fd5b81019080805190602001909291905050506040518060400160405280600681526020017f4c65644e465400000000000000000000000000000000000000000000000000008152506040518060400160405280600381526020017f4c45440000000000000000000000000000000000000000000000000000000000815250620000d16301ffc9a760e01b620001f960201b60201c565b8160069080519060200190620000e992919062000302565b5080600790805190602001906200010292919062000302565b506200011b6380ac58cd60e01b620001f960201b60201c565b62000133635b5e139f60e01b620001f960201b60201c565b6200014b63780e9d6360e01b620001f960201b60201c565b505080601560006101000a81548173ffffffffffffffffffffffffffffffffffffffff021916908373ffffffffffffffffffffffffffffffffffffffff16021790555033601660006101000a81548173ffffffffffffffffffffffffffffffffffffffff021916908373ffffffffffffffffffffffffffffffffffffffff1602179055506000601960006101000a81548160ff021916908315150217905550600060188190555050620003b1565b63ffffffff60e01b817bffffffffffffffffffffffffffffffffffffffffffffffffffffffff1916141562000296576040517f08c379a000000000000000000000000000000000000000000000000000000000815260040180806020018281038252601c8152602001807f4552433136353a20696e76616c696420696e746572666163652069640000000081525060200191505060405180910390fd5b6001600080837bffffffffffffffffffffffffffffffffffffffffffffffffffffffff19167bffffffffffffffffffffffffffffffffffffffffffffffffffffffff1916815260200190815260200160002060006101000a81548160ff02191690831515021790555050565b828054600181600116156101000203166002900490600052602060002090601f016020900481019282601f106200034557805160ff191683800117855562000376565b8280016001018555821562000376579182015b828111156200037557825182559160200191906001019062000358565b5b50905062000385919062000389565b5090565b620003ae91905b80821115620003aa57600081600090555060010162000390565b5090565b90565b615aa580620003c16000396000f3fe6080604052600436106102ae5760003560e01c80637fec13d711610175578063bab33dd6116100dc578063d89eac9a11610095578063e985e9c51161006f578063e985e9c514611547578063ea72a36d146115d0578063ed9ec888146115e7578063f4487d7c1461164c576102ae565b8063d89eac9a14611403578063dcd6a95d14611493578063dfe9c3cf146114e2576102ae565b8063bab33dd6146111a4578063c5e09b66146111fd578063c634d0321461128d578063c87b56dd146112bb578063cc6d45231461136f578063ccee2838146113c6576102ae565b806395d89b411161012e57806395d89b4114610ebf57806398b2b52314610f4f578063a22cb46514610fbb578063a386439714611018578063b5077f4414611067578063b88d4fde14611092576102ae565b80637fec13d714610c65578063814b525514610cb45780638571d35514610d2f5780638da5cb5b14610d825780639297617914610dd95780639426543814610e28576102ae565b80632f745c59116102195780636352211e116101d25780636352211e14610a365780636ac437b014610ab15780636c0360eb14610ae05780636f9fb98a14610b7057806370a0823114610b9b5780637241dfa014610c00576102ae565b80632f745c59146107ce5780633197cbb61461083d57806342842e0e146108685780634404c50f146108e35780634f6ccce71461096157806350c8b15c146109b0576102ae565b80630c129ccf1161026b5780630c129ccf146105cf5780630ef59bd0146105fa57806318160ddd14610653578063207ce2fe1461067e57806323b872dd146106f957806324ac8cc214610774576102ae565b806301ffc9a7146102b357806306fdde0314610325578063073252a3146103b5578063081812fc14610445578063095ea7b3146104c05780630bb78ec11461051b575b600080fd5b3480156102bf57600080fd5b5061030b600480360360208110156102d657600080fd5b8101908080357bffffffffffffffffffffffffffffffffffffffffffffffffffffffff19169060200190929190505050611687565b604051808215151515815260200191505060405180910390f35b34801561033157600080fd5b5061033a6116ee565b6040518080602001828103825283818151815260200191508051906020019080838360005b8381101561037a57808201518184015260208101905061035f565b50505050905090810190601f1680156103a75780820380516001836020036101000a031916815260200191505b509250505060405180910390f35b3480156103c157600080fd5b506103ca611790565b6040518080602001828103825283818151815260200191508051906020019080838360005b8381101561040a5780820151818401526020810190506103ef565b50505050905090810190601f1680156104375780820380516001836020036101000a031916815260200191505b509250505060405180910390f35b34801561045157600080fd5b5061047e6004803603602081101561046857600080fd5b810190808035906020019092919050505061182e565b604051808273ffffffffffffffffffffffffffffffffffffffff1673ffffffffffffffffffffffffffffffffffffffff16815260200191505060405180910390f35b3480156104cc57600080fd5b50610519600480360360408110156104e357600080fd5b81019080803573ffffffffffffffffffffffffffffffffffffffff169060200190929190803590602001909291905050506118c9565b005b34801561052757600080fd5b506105546004803603602081101561053e57600080fd5b8101908080359060200190929190505050611a0d565b6040518080602001828103825283818151815260200191508051906020019080838360005b83811015610594578082015181840152602081019050610579565b50505050905090810190601f1680156105c15780820380516001836020036101000a031916815260200191505b509250505060405180910390f35b3480156105db57600080fd5b506105e4611abd565b6040518082815260200191505060405180910390f35b34801561060657600080fd5b5061063d6004803603604081101561061d57600080fd5b810190808035906020019092919080359060200190929190505050611ac9565b6040518082815260200191505060405180910390f35b34801561065f57600080fd5b50610668611af7565b6040518082815260200191505060405180910390f35b34801561068a57600080fd5b506106b7600480360360208110156106a157600080fd5b8101908080359060200190929190505050611b08565b604051808273ffffffffffffffffffffffffffffffffffffffff1673ffffffffffffffffffffffffffffffffffffffff16815260200191505060405180910390f35b34801561070557600080fd5b506107726004803603606081101561071c57600080fd5b81019080803573ffffffffffffffffffffffffffffffffffffffff169060200190929190803573ffffffffffffffffffffffffffffffffffffffff16906020019092919080359060200190929190505050611b3b565b005b34801561078057600080fd5b506107ad6004803603602081101561079757600080fd5b8101908080359060200190929190505050611bb1565b60405180831515151581526020018281526020019250505060405180910390f35b3480156107da57600080fd5b50610827600480360360408110156107f157600080fd5b81019080803573ffffffffffffffffffffffffffffffffffffffff16906020019092919080359060200190929190505050611be2565b6040518082815260200191505060405180910390f35b34801561084957600080fd5b50610852611c3d565b6040518082815260200191505060405180910390f35b34801561087457600080fd5b506108e16004803603606081101561088b57600080fd5b81019080803573ffffffffffffffffffffffffffffffffffffffff169060200190929190803573ffffffffffffffffffffffffffffffffffffffff16906020019092919080359060200190929190505050611c43565b005b3480156108ef57600080fd5b5061095f60048036036103e081101561090757600080fd5b8101908080359060200190929190806103c00190601e806020026040519081016040528092919082601e60200280828437600081840152601f19601f8201169050808301925050505050509192919290505050611c63565b005b34801561096d57600080fd5b5061099a6004803603602081101561098457600080fd5b810190808035906020019092919050505061246c565b6040518082815260200191505060405180910390f35b3480156109bc57600080fd5b50610a34600480360360208110156109d357600080fd5b81019080803590602001906401000000008111156109f057600080fd5b820183602082011115610a0257600080fd5b80359060200191846001830284011164010000000083111715610a2457600080fd5b909192939192939050505061248f565b005b348015610a4257600080fd5b50610a6f60048036036020811015610a5957600080fd5b8101908080359060200190929190505050612662565b604051808273ffffffffffffffffffffffffffffffffffffffff1673ffffffffffffffffffffffffffffffffffffffff16815260200191505060405180910390f35b348015610abd57600080fd5b50610ac6612699565b604051808215151515815260200191505060405180910390f35b348015610aec57600080fd5b50610af56126ac565b6040518080602001828103825283818151815260200191508051906020019080838360005b83811015610b35578082015181840152602081019050610b1a565b50505050905090810190601f168015610b625780820380516001836020036101000a031916815260200191505b509250505060405180910390f35b348015610b7c57600080fd5b50610b8561274e565b6040518082815260200191505060405180910390f35b348015610ba757600080fd5b50610bea60048036036020811015610bbe57600080fd5b81019080803573ffffffffffffffffffffffffffffffffffffffff1690602001909291905050506127fc565b6040518082815260200191505060405180910390f35b348015610c0c57600080fd5b50610c4f60048036036020811015610c2357600080fd5b81019080803573ffffffffffffffffffffffffffffffffffffffff1690602001909291905050506128d1565b6040518082815260200191505060405180910390f35b348015610c7157600080fd5b50610c9e60048036036020811015610c8857600080fd5b810190808035906020019092919050505061291a565b6040518082815260200191505060405180910390f35b348015610cc057600080fd5b50610ced60048036036020811015610cd757600080fd5b8101908080359060200190929190505050612938565b604051808273ffffffffffffffffffffffffffffffffffffffff1673ffffffffffffffffffffffffffffffffffffffff16815260200191505060405180910390f35b348015610d3b57600080fd5b50610d6860048036036020811015610d5257600080fd5b810190808035906020019092919050505061296b565b604051808215151515815260200191505060405180910390f35b348015610d8e57600080fd5b50610d9761298b565b604051808273ffffffffffffffffffffffffffffffffffffffff1673ffffffffffffffffffffffffffffffffffffffff16815260200191505060405180910390f35b348015610de557600080fd5b50610e1260048036036020811015610dfc57600080fd5b81019080803590602001909291905050506129b1565b6040518082815260200191505060405180910390f35b348015610e3457600080fd5b50610e6160048036036020811015610e4b57600080fd5b8101908080359060200190929190505050612ac2565b6040518080602001838152602001828103825284818151815260200191508051906020019060200280838360005b83811015610eaa578082015181840152602081019050610e8f565b50505050905001935050505060405180910390f35b348015610ecb57600080fd5b50610ed4612c05565b6040518080602001828103825283818151815260200191508051906020019080838360005b83811015610f14578082015181840152602081019050610ef9565b50505050905090810190601f168015610f415780820380516001836020036101000a031916815260200191505b509250505060405180910390f35b348015610f5b57600080fd5b50610f64612ca7565b6040518080602001828103825283818151815260200191508051906020019060200280838360005b83811015610fa7578082015181840152602081019050610f8c565b505050509050019250505060405180910390f35b348015610fc757600080fd5b5061101660048036036040811015610fde57600080fd5b81019080803573ffffffffffffffffffffffffffffffffffffffff169060200190929190803515159060200190929190505050612cff565b005b34801561102457600080fd5b506110516004803603602081101561103b57600080fd5b8101908080359060200190929190505050612eb7565b6040518082815260200191505060405180910390f35b34801561107357600080fd5b5061107c612ecf565b6040518082815260200191505060405180910390f35b34801561109e57600080fd5b506111a2600480360360808110156110b557600080fd5b81019080803573ffffffffffffffffffffffffffffffffffffffff169060200190929190803573ffffffffffffffffffffffffffffffffffffffff169060200190929190803590602001909291908035906020019064010000000081111561111c57600080fd5b82018360208201111561112e57600080fd5b8035906020019184600183028401116401000000008311171561115057600080fd5b91908080601f016020809104026020016040519081016040528093929190818152602001838380828437600081840152601f19601f820116905080830192505050505050509192919290505050612ed5565b005b3480156111b057600080fd5b506111e7600480360360408110156111c757600080fd5b810190808035906020019092919080359060200190929190505050612f4d565b6040518082815260200191505060405180910390f35b34801561120957600080fd5b506112366004803603602081101561122057600080fd5b8101908080359060200190929190505050612f7b565b6040518080602001828103825283818151815260200191508051906020019060200280838360005b8381101561127957808201518184015260208101905061125e565b505050509050019250505060405180910390f35b6112b9600480360360208110156112a357600080fd5b810190808035906020019092919050505061308f565b005b3480156112c757600080fd5b506112f4600480360360208110156112de57600080fd5b81019080803590602001909291905050506139a9565b6040518080602001828103825283818151815260200191508051906020019080838360005b83811015611334578082015181840152602081019050611319565b50505050905090810190601f1680156113615780820380516001836020036101000a031916815260200191505b509250505060405180910390f35b34801561137b57600080fd5b50611384613c92565b604051808273ffffffffffffffffffffffffffffffffffffffff1673ffffffffffffffffffffffffffffffffffffffff16815260200191505060405180910390f35b3480156113d257600080fd5b50611401600480360360208110156113e957600080fd5b81019080803515159060200190929190505050613cb8565b005b34801561140f57600080fd5b5061143c6004803603602081101561142657600080fd5b8101908080359060200190929190505050613d7b565b6040518080602001828103825283818151815260200191508051906020019060200280838360005b8381101561147f578082015181840152602081019050611464565b505050509050019250505060405180910390f35b34801561149f57600080fd5b506114cc600480360360208110156114b657600080fd5b8101908080359060200190929190505050613eb0565b6040518082815260200191505060405180910390f35b3480156114ee57600080fd5b506115316004803603602081101561150557600080fd5b81019080803573ffffffffffffffffffffffffffffffffffffffff169060200190929190505050613ed0565b6040518082815260200191505060405180910390f35b34801561155357600080fd5b506115b66004803603604081101561156a57600080fd5b81019080803573ffffffffffffffffffffffffffffffffffffffff169060200190929190803573ffffffffffffffffffffffffffffffffffffffff169060200190929190505050613ee8565b604051808215151515815260200191505060405180910390f35b3480156115dc57600080fd5b506115e5613f7c565b005b3480156115f357600080fd5b506116366004803603602081101561160a57600080fd5b81019080803573ffffffffffffffffffffffffffffffffffffffff16906020019092919050505061407e565b6040518082815260200191505060405180910390f35b34801561165857600080fd5b506116856004803603602081101561166f57600080fd5b8101908080359060200190929190505050614096565b005b6000806000837bffffffffffffffffffffffffffffffffffffffffffffffffffffffff19167bffffffffffffffffffffffffffffffffffffffffffffffffffffffff1916815260200190815260200160002060009054906101000a900460ff169050919050565b606060068054600181600116156101000203166002900480601f0160208091040260200160405190810160405280929190818152602001828054600181600116156101000203166002900480156117865780601f1061175b57610100808354040283529160200191611786565b820191906000526020600020905b81548152906001019060200180831161176957829003601f168201915b5050505050905090565b601b8054600181600116156101000203166002900480601f0160208091040260200160405190810160405280929190818152602001828054600181600116156101000203166002900480156118265780601f106117fb57610100808354040283529160200191611826565b820191906000526020600020905b81548152906001019060200180831161180957829003601f168201915b505050505081565b600061183982614148565b61188e576040517f08c379a000000000000000000000000000000000000000000000000000000000815260040180806020018281038252602c8152602001806158ea602c913960400191505060405180910390fd5b6004600083815260200190815260200160002060009054906101000a900473ffffffffffffffffffffffffffffffffffffffff169050919050565b60006118d482612662565b90508073ffffffffffffffffffffffffffffffffffffffff168373ffffffffffffffffffffffffffffffffffffffff16141561195b576040517f08c379a000000000000000000000000000000000000000000000000000000000815260040180806020018281038252602181526020018061599a6021913960400191505060405180910390fd5b8073ffffffffffffffffffffffffffffffffffffffff1661197a614165565b73ffffffffffffffffffffffffffffffffffffffff1614806119a957506119a8816119a3614165565b613ee8565b5b6119fe576040517f08c379a00000000000000000000000000000000000000000000000000000000081526004018080602001828103825260388152602001806157e26038913960400191505060405180910390fd5b611a08838361416d565b505050565b601a6020528060005260406000206000915090508054600181600116156101000203166002900480601f016020809104026020016040519081016040528092919081815260200182805460018160011615610100020316600290048015611ab55780601f10611a8a57610100808354040283529160200191611ab5565b820191906000526020600020905b815481529060010190602001808311611a9857829003601f168201915b505050505081565b670de0b6b3a764000081565b60126020528160005260406000208181548110611ae257fe5b90600052602060002001600091509150505481565b6000611b036002614226565b905090565b600b6020528060005260406000206000915054906101000a900473ffffffffffffffffffffffffffffffffffffffff1681565b611b4c611b46614165565b8261423b565b611ba1576040517f08c379a00000000000000000000000000000000000000000000000000000000081526004018080602001828103825260318152602001806159de6031913960400191505060405180910390fd5b611bac83838361432f565b505050565b600e6020528060005260406000206000915090508060000160009054906101000a900460ff16908060010154905082565b6000611c3582600160008673ffffffffffffffffffffffffffffffffffffffff1673ffffffffffffffffffffffffffffffffffffffff16815260200190815260200160002061457290919063ffffffff16565b905092915050565b60185481565b611c5e83838360405180602001604052806000815250612ed5565b505050565b6000611c6e83612662565b90503373ffffffffffffffffffffffffffffffffffffffff168173ffffffffffffffffffffffffffffffffffffffff1614611d11576040517f08c379a000000000000000000000000000000000000000000000000000000000815260040180806020018281038252600e8152602001807f4e6f7420617574686f726973656400000000000000000000000000000000000081525060200191505060405180910390fd5b670de0b6b3a7640000601560009054906101000a900473ffffffffffffffffffffffffffffffffffffffff1673ffffffffffffffffffffffffffffffffffffffff166370a08231336040518263ffffffff1660e01b8152600401808273ffffffffffffffffffffffffffffffffffffffff1673ffffffffffffffffffffffffffffffffffffffff16815260200191505060206040518083038186803b158015611db957600080fd5b505afa158015611dcd573d6000803e3d6000fd5b505050506040513d6020811015611de357600080fd5b81019080805190602001909291905050501015611e68576040517f08c379a00000000000000000000000000000000000000000000000000000000081526004018080602001828103825260128152602001807f4e6f7420656e6f7567682062616c616e6365000000000000000000000000000081525060200191505060405180910390fd5b611e7183613d7b565b60405160200180828051906020019060200280838360005b83811015611ea4578082015181840152602081019050611e89565b5050505090500191505060405160208183030381529060405280519060200120826040516020018082601e60200280838360005b83811015611ef3578082015181840152602081019050611ed8565b50505050905001915050604051602081830303815290604052805190602001201415611f6a576040517f08c379a000000000000000000000000000000000000000000000000000000000815260040180806020018281038252602681526020018061572f6026913960400191505060405180910390fd5b60008090505b601e81101561202a5760008382601e8110611f8757fe5b602002015110158015611fab575060648382601e8110611fa357fe5b602002015111155b61201d576040517f08c379a00000000000000000000000000000000000000000000000000000000081526004018080602001828103825260158152602001807f496e76616c696420626c696e6b207061747465726e000000000000000000000081525060200191505060405180910390fd5b8080600101915050611f70565b50816014600085815260200190815260200160002090601e61204d929190615499565b506000834260405160200180838152602001828152602001925050506040516020818303038152906040528051906020012060001c9050600083826040516020018083601e60200280838360005b838110156120b657808201518184015260208101905061209b565b505050509050018281526020019250505060405160208183030381529060405280519060200120905060126000868152602001908152602001600020819080600181540180825580915050600190039060005260206000200160009091909190915055336010600083815260200190815260200160002060006101000a81548173ffffffffffffffffffffffffffffffffffffffff021916908373ffffffffffffffffffffffffffffffffffffffff160217905550836011600083815260200190815260200160002060000190601e612190929190615499565b50816011600083815260200190815260200160002060010181905550601560009054906101000a900473ffffffffffffffffffffffffffffffffffffffff1673ffffffffffffffffffffffffffffffffffffffff1663e1f21c673330670de0b6b3a76400006040518463ffffffff1660e01b8152600401808473ffffffffffffffffffffffffffffffffffffffff1673ffffffffffffffffffffffffffffffffffffffff1681526020018373ffffffffffffffffffffffffffffffffffffffff1673ffffffffffffffffffffffffffffffffffffffff1681526020018281526020019350505050602060405180830381600087803b15801561229157600080fd5b505af11580156122a5573d6000803e3d6000fd5b505050506040513d60208110156122bb57600080fd5b8101908080519060200190929190505050506000601560009054906101000a900473ffffffffffffffffffffffffffffffffffffffff1673ffffffffffffffffffffffffffffffffffffffff166323b872dd3330670de0b6b3a76400006040518463ffffffff1660e01b8152600401808473ffffffffffffffffffffffffffffffffffffffff1673ffffffffffffffffffffffffffffffffffffffff1681526020018373ffffffffffffffffffffffffffffffffffffffff1673ffffffffffffffffffffffffffffffffffffffff1681526020018281526020019350505050602060405180830381600087803b1580156123b457600080fd5b505af11580156123c8573d6000803e3d6000fd5b505050506040513d60208110156123de57600080fd5b8101908080519060200190929190505050905080612464576040517f08c379a00000000000000000000000000000000000000000000000000000000081526004018080602001828103825260168152602001807f4661696c656420746f207472616e73666572204943540000000000000000000081525060200191505060405180910390fd5b505050505050565b60008061248383600261458c90919063ffffffff16565b50905080915050919050565b3373ffffffffffffffffffffffffffffffffffffffff16601660009054906101000a900473ffffffffffffffffffffffffffffffffffffffff1673ffffffffffffffffffffffffffffffffffffffff1614612535576040517f08c379a000000000000000000000000000000000000000000000000000000000815260040180806020018281038252602d815260200180615755602d913960400191505060405180910390fd5b6060601b8054600181600116156101000203166002900480601f0160208091040260200160405190810160405280929190818152602001828054600181600116156101000203166002900480156125cd5780601f106125a2576101008083540402835291602001916125cd565b820191906000526020600020905b8154815290600101906020018083116125b057829003601f168201915b50505050509050600081511461264b576040517f08c379a000000000000000000000000000000000000000000000000000000000815260040180806020018281038252600a8152602001807f416c72656164795365740000000000000000000000000000000000000000000081525060200191505060405180910390fd5b8282601b919061265c9291906154e6565b50505050565b60006126928260405180606001604052806029815260200161587a6029913960026145bb9092919063ffffffff16565b9050919050565b601960009054906101000a900460ff1681565b606060098054600181600116156101000203166002900480601f0160208091040260200160405190810160405280929190818152602001828054600181600116156101000203166002900480156127445780601f1061271957610100808354040283529160200191612744565b820191906000526020600020905b81548152906001019060200180831161272757829003601f168201915b5050505050905090565b60003373ffffffffffffffffffffffffffffffffffffffff16601660009054906101000a900473ffffffffffffffffffffffffffffffffffffffff1673ffffffffffffffffffffffffffffffffffffffff16146127f6576040517f08c379a000000000000000000000000000000000000000000000000000000000815260040180806020018281038252602d815260200180615755602d913960400191505060405180910390fd5b47905090565b60008073ffffffffffffffffffffffffffffffffffffffff168273ffffffffffffffffffffffffffffffffffffffff161415612883576040517f08c379a000000000000000000000000000000000000000000000000000000000815260040180806020018281038252602a815260200180615850602a913960400191505060405180910390fd5b6128ca600160008473ffffffffffffffffffffffffffffffffffffffff1673ffffffffffffffffffffffffffffffffffffffff1681526020019081526020016000206145da565b9050919050565b6000600c60008373ffffffffffffffffffffffffffffffffffffffff1673ffffffffffffffffffffffffffffffffffffffff168152602001908152602001600020549050919050565b60116020528060005260406000206000915090508060010154905081565b60106020528060005260406000206000915054906101000a900473ffffffffffffffffffffffffffffffffffffffff1681565b600a6020528060005260406000206000915054906101000a900460ff1681565b601660009054906101000a900473ffffffffffffffffffffffffffffffffffffffff1681565b6000426018541015612a2b576040517f08c379a000000000000000000000000000000000000000000000000000000000815260040180806020018281038252600d8152602001807f53616c65206973206f766572210000000000000000000000000000000000000081525060200191505060405180910390fd5b610800612a36611af7565b1115612aaa576040517f08c379a00000000000000000000000000000000000000000000000000000000081526004018080602001828103825260148152602001807f416c6c204e4654277320617265206d696e74656400000000000000000000000081525060200191505060405180910390fd5b6000670b1a2bc2ec5000009050808302915050919050565b606060006010600084815260200190815260200160002060009054906101000a900473ffffffffffffffffffffffffffffffffffffffff1673ffffffffffffffffffffffffffffffffffffffff163373ffffffffffffffffffffffffffffffffffffffff1614612b7d576040517f08c379a00000000000000000000000000000000000000000000000000000000081526004018080602001828103825260258152602001806158a36025913960400191505060405180910390fd5b60116000848152602001908152602001600020600001601160008581526020019081526020016000206001015481805480602002602001604051908101604052809291908181526020018280548015612bf557602002820191906000526020600020905b815481526020019060010190808311612be1575b5050505050915091509150915091565b606060078054600181600116156101000203166002900480601f016020809104026020016040519081016040528092919081815260200182805460018160011615610100020316600290048015612c9d5780601f10612c7257610100808354040283529160200191612c9d565b820191906000526020600020905b815481529060010190602001808311612c8057829003601f168201915b5050505050905090565b6060600d805480602002602001604051908101604052809291908181526020018280548015612cf557602002820191906000526020600020905b815481526020019060010190808311612ce1575b5050505050905090565b612d07614165565b73ffffffffffffffffffffffffffffffffffffffff168273ffffffffffffffffffffffffffffffffffffffff161415612da8576040517f08c379a00000000000000000000000000000000000000000000000000000000081526004018080602001828103825260198152602001807f4552433732313a20617070726f766520746f2063616c6c65720000000000000081525060200191505060405180910390fd5b8060056000612db5614165565b73ffffffffffffffffffffffffffffffffffffffff1673ffffffffffffffffffffffffffffffffffffffff16815260200190815260200160002060008473ffffffffffffffffffffffffffffffffffffffff1673ffffffffffffffffffffffffffffffffffffffff16815260200190815260200160002060006101000a81548160ff0219169083151502179055508173ffffffffffffffffffffffffffffffffffffffff16612e62614165565b73ffffffffffffffffffffffffffffffffffffffff167f17307eab39ab6107e8899845ad3d59bd9653f200f220920489ca2b5937696c3183604051808215151515815260200191505060405180910390a35050565b60136020528060005260406000206000915090505481565b61080081565b612ee6612ee0614165565b8361423b565b612f3b576040517f08c379a00000000000000000000000000000000000000000000000000000000081526004018080602001828103825260318152602001806159de6031913960400191505060405180910390fd5b612f47848484846145ef565b50505050565b60146020528160005260406000208181548110612f6657fe5b90600052602060002001600091509150505481565b6060612f8682612662565b73ffffffffffffffffffffffffffffffffffffffff163373ffffffffffffffffffffffffffffffffffffffff1614613026576040517f08c379a00000000000000000000000000000000000000000000000000000000081526004018080602001828103825260208152602001807f596f752063616e206f6e6c79207669657720796f7572206f776e20736b696e7381525060200191505060405180910390fd5b6012600083815260200190815260200160002080548060200260200160405190810160405280929190818152602001828054801561308357602002820191906000526020600020905b81548152602001906001019080831161306f575b50505050509050919050565b600181101580156130a1575060038111155b6130f6576040517f08c379a000000000000000000000000000000000000000000000000000000000815260040180806020018281038252603681526020018061581a6036913960400191505060405180910390fd5b60008090505b818160ff1610156139a55760011515601960009054906101000a900460ff16151514613190576040517f08c379a00000000000000000000000000000000000000000000000000000000081526004018080602001828103825260128152602001807f4d696e74696e672069732050617573656421000000000000000000000000000081525060200191505060405180910390fd5b426018541015613208576040517f08c379a000000000000000000000000000000000000000000000000000000000815260040180806020018281038252600d8152602001807f53616c65206973206f766572210000000000000000000000000000000000000081525060200191505060405180910390fd5b6003601760003373ffffffffffffffffffffffffffffffffffffffff1673ffffffffffffffffffffffffffffffffffffffff16815260200190815260200160002054106132a0576040517f08c379a00000000000000000000000000000000000000000000000000000000081526004018080602001828103825260238152602001806159bb6023913960400191505060405180910390fd5b6108006132ab611af7565b10613301576040517f08c379a0000000000000000000000000000000000000000000000000000000008152600401808060200182810382526036815260200180615a3a6036913960400191505060405180910390fd5b3461330b836129b1565b14613361576040517f08c379a00000000000000000000000000000000000000000000000000000000081526004018080602001828103825260348152602001806157ae6034913960400191505060405180910390fd5b600080905060006108004233600f54604051602001808481526020018373ffffffffffffffffffffffffffffffffffffffff1673ffffffffffffffffffffffffffffffffffffffff1660601b815260140182815260200193505050506040516020818303038152906040528051906020012060001c816133dd57fe5b069050600181019050600f600081548092919060010191905055505b60011515600a600083815260200190815260200160002060009054906101000a900460ff161515141561344c57610801600182018161343457fe5b0690506000811415613447576001810190505b613480565b6001600a600083815260200190815260200160002060006101000a81548160ff021916908315150217905550809150613489565b600082146133f9575b6001600c60003373ffffffffffffffffffffffffffffffffffffffff1673ffffffffffffffffffffffffffffffffffffffff1681526020019081526020016000206000828254019250508190555033600b600084815260200190815260200160002060006101000a81548173ffffffffffffffffffffffffffffffffffffffff021916908373ffffffffffffffffffffffffffffffffffffffff160217905550601760003373ffffffffffffffffffffffffffffffffffffffff1673ffffffffffffffffffffffffffffffffffffffff1681526020019081526020016000206000815460010191905081905550600d82908060018154018082558091505060019003906000526020600020016000909190919091505560008090505b601e81101561366f5760146000848152602001908152602001600020606533424485604051602001808573ffffffffffffffffffffffffffffffffffffffff1673ffffffffffffffffffffffffffffffffffffffff1660601b81526014018481526020018381526020018281526020019450505050506040516020818303038152906040528051906020012060001c8161363b57fe5b06908060018154018082558091505060019003906000526020600020016000909190919091505580806001019150506135a5565b506000824260405160200180838152602001828152602001925050506040516020818303038152906040528051906020012060001c905060606136b184613d7b565b90506000818360405160200180838051906020019060200280838360005b838110156136ea5780820151818401526020810190506136cf565b505050509050018281526020019250505060405160208183030381529060405280519060200120905060126000868152602001908152602001600020819080600181540180825580915050600190039060005260206000200160009091909190915055336010600083815260200190815260200160002060006101000a81548173ffffffffffffffffffffffffffffffffffffffff021916908373ffffffffffffffffffffffffffffffffffffffff160217905550816011600083815260200190815260200160002060000190805190602001906137c9929190615566565b50826011600083815260200190815260200160002060010181905550601560009054906101000a900473ffffffffffffffffffffffffffffffffffffffff1673ffffffffffffffffffffffffffffffffffffffff1663f74b40c386426040518363ffffffff1660e01b81526004018083815260200182815260200192505050600060405180830381600087803b15801561386257600080fd5b505af1158015613876573d6000803e3d6000fd5b5050505084604051602001808281526020019150506040516020818303038152906040528051906020012060136000878152602001908152602001600020819055506138c23386614661565b60606138cd8661467f565b60405160200180806156ad6030913960300182805190602001908083835b6020831061390e57805182526020820191506020810190506020830392506138eb565b6001836020036101000a038019825116818451168082178552505050505050905001915050604051602081830303815290604052905061394e86826147c6565b853373ffffffffffffffffffffffffffffffffffffffff167f7a5477f3d257e8974dc6fb5c008b442d975968577dfad5d1283aa0a488bfab0b60405160405180910390a350505050505080806001019150506130fc565b5050565b60606139b482614148565b613a09576040517f08c379a000000000000000000000000000000000000000000000000000000000815260040180806020018281038252602f81526020018061596b602f913960400191505060405180910390fd5b6060600860008481526020019081526020016000208054600181600116156101000203166002900480601f016020809104026020016040519081016040528092919081815260200182805460018160011615610100020316600290048015613ab25780601f10613a8757610100808354040283529160200191613ab2565b820191906000526020600020905b815481529060010190602001808311613a9557829003601f168201915b50505050509050600060098054600181600116156101000203166002900490501415613ae15780915050613c8d565b600081511115613bba576009816040516020018083805460018160011615610100020316600290048015613b4c5780601f10613b2a576101008083540402835291820191613b4c565b820191906000526020600020905b815481529060010190602001808311613b38575b505082805190602001908083835b60208310613b7d5780518252602082019150602081019050602083039250613b5a565b6001836020036101000a03801982511681845116808217855250505050505090500192505050604051602081830303815290604052915050613c8d565b6009613bc58461467f565b6040516020018083805460018160011615610100020316600290048015613c235780601f10613c01576101008083540402835291820191613c23565b820191906000526020600020905b815481529060010190602001808311613c0f575b505082805190602001908083835b60208310613c545780518252602082019150602081019050602083039250613c31565b6001836020036101000a038019825116818451168082178552505050505050905001925050506040516020818303038152906040529150505b919050565b601560009054906101000a900473ffffffffffffffffffffffffffffffffffffffff1681565b3373ffffffffffffffffffffffffffffffffffffffff16601660009054906101000a900473ffffffffffffffffffffffffffffffffffffffff1673ffffffffffffffffffffffffffffffffffffffff1614613d5e576040517f08c379a000000000000000000000000000000000000000000000000000000000815260040180806020018281038252602d815260200180615755602d913960400191505060405180910390fd5b80601960006101000a81548160ff02191690831515021790555050565b6060610800821115613dd8576040517f08c379a000000000000000000000000000000000000000000000000000000000815260040180806020018281038252602b815260200180615a0f602b913960400191505060405180910390fd5b601e601460008481526020019081526020016000208054905014613e47576040517f08c379a000000000000000000000000000000000000000000000000000000000815260040180806020018281038252602e815260200180615701602e913960400191505060405180910390fd5b60146000838152602001908152602001600020805480602002602001604051908101604052809291908181526020018280548015613ea457602002820191906000526020600020905b815481526020019060010190808311613e90575b50505050509050919050565b6000600e6000838152602001908152602001600020600101549050919050565b60176020528060005260406000206000915090505481565b6000600560008473ffffffffffffffffffffffffffffffffffffffff1673ffffffffffffffffffffffffffffffffffffffff16815260200190815260200160002060008373ffffffffffffffffffffffffffffffffffffffff1673ffffffffffffffffffffffffffffffffffffffff16815260200190815260200160002060009054906101000a900460ff16905092915050565b3373ffffffffffffffffffffffffffffffffffffffff16601660009054906101000a900473ffffffffffffffffffffffffffffffffffffffff1673ffffffffffffffffffffffffffffffffffffffff1614614022576040517f08c379a000000000000000000000000000000000000000000000000000000000815260040180806020018281038252602d815260200180615755602d913960400191505060405180910390fd5b6000339050600061403161274e565b90508173ffffffffffffffffffffffffffffffffffffffff166108fc829081150290604051600060405180830381858888f19350505050158015614079573d6000803e3d6000fd5b505050565b600c6020528060005260406000206000915090505481565b3373ffffffffffffffffffffffffffffffffffffffff16601660009054906101000a900473ffffffffffffffffffffffffffffffffffffffff1673ffffffffffffffffffffffffffffffffffffffff161461413c576040517f08c379a000000000000000000000000000000000000000000000000000000000815260040180806020018281038252602d815260200180615755602d913960400191505060405180910390fd5b80420160188190555050565b600061415e82600261485090919063ffffffff16565b9050919050565b600033905090565b816004600083815260200190815260200160002060006101000a81548173ffffffffffffffffffffffffffffffffffffffff021916908373ffffffffffffffffffffffffffffffffffffffff160217905550808273ffffffffffffffffffffffffffffffffffffffff166141e083612662565b73ffffffffffffffffffffffffffffffffffffffff167f8c5be1e5ebec7d5bd14f71427d1e84f3dd0314c0f7b2291e5b200ac8c7c3b92560405160405180910390a45050565b60006142348260000161486a565b9050919050565b600061424682614148565b61429b576040517f08c379a000000000000000000000000000000000000000000000000000000000815260040180806020018281038252602c815260200180615782602c913960400191505060405180910390fd5b60006142a683612662565b90508073ffffffffffffffffffffffffffffffffffffffff168473ffffffffffffffffffffffffffffffffffffffff16148061431557508373ffffffffffffffffffffffffffffffffffffffff166142fd8461182e565b73ffffffffffffffffffffffffffffffffffffffff16145b8061432657506143258185613ee8565b5b91505092915050565b8273ffffffffffffffffffffffffffffffffffffffff1661434f82612662565b73ffffffffffffffffffffffffffffffffffffffff16146143bb576040517f08c379a00000000000000000000000000000000000000000000000000000000081526004018080602001828103825260298152602001806159426029913960400191505060405180910390fd5b600073ffffffffffffffffffffffffffffffffffffffff168273ffffffffffffffffffffffffffffffffffffffff161415614441576040517f08c379a00000000000000000000000000000000000000000000000000000000081526004018080602001828103825260248152602001806156dd6024913960400191505060405180910390fd5b61444c83838361487b565b61445760008261416d565b6144a881600160008673ffffffffffffffffffffffffffffffffffffffff1673ffffffffffffffffffffffffffffffffffffffff16815260200190815260200160002061488090919063ffffffff16565b506144fa81600160008573ffffffffffffffffffffffffffffffffffffffff1673ffffffffffffffffffffffffffffffffffffffff16815260200190815260200160002061489a90919063ffffffff16565b50614511818360026148b49092919063ffffffff16565b50808273ffffffffffffffffffffffffffffffffffffffff168473ffffffffffffffffffffffffffffffffffffffff167fddf252ad1be2c89b69c2b068fc378daa952ba7f163c4a11628f55a4df523b3ef60405160405180910390a4505050565b600061458183600001836148e9565b60001c905092915050565b60008060008061459f866000018661496c565b915091508160001c8160001c8090509350935050509250929050565b60006145ce846000018460001b84614a05565b60001c90509392505050565b60006145e882600001614afb565b9050919050565b6145fa84848461432f565b61460684848484614b0c565b61465b576040517f08c379a000000000000000000000000000000000000000000000000000000000815260040180806020018281038252603281526020018061567b6032913960400191505060405180910390fd5b50505050565b61467b828260405180602001604052806000815250614d51565b5050565b606060008214156146c7576040518060400160405280600181526020017f300000000000000000000000000000000000000000000000000000000000000081525090506147c1565b600082905060005b600082146146f1578080600101915050600a82816146e957fe5b0491506146cf565b60608167ffffffffffffffff8111801561470a57600080fd5b506040519080825280601f01601f19166020018201604052801561473d5781602001600182028036833780820191505090505b50905060006001830390508593505b600084146147b957600a848161475e57fe5b0660300160f81b8282806001900393508151811061477857fe5b60200101907effffffffffffffffffffffffffffffffffffffffffffffffffffffffffffff1916908160001a905350600a84816147b157fe5b04935061474c565b819450505050505b919050565b6147cf82614148565b614824576040517f08c379a000000000000000000000000000000000000000000000000000000000815260040180806020018281038252602c815260200180615916602c913960400191505060405180910390fd5b80601a6000848152602001908152602001600020908051906020019061484b9291906155b3565b505050565b6000614862836000018360001b614dc2565b905092915050565b600081600001805490509050919050565b505050565b6000614892836000018360001b614de5565b905092915050565b60006148ac836000018360001b614ecd565b905092915050565b60006148e0846000018460001b8473ffffffffffffffffffffffffffffffffffffffff1660001b614f3d565b90509392505050565b60008183600001805490501161494a576040517f08c379a00000000000000000000000000000000000000000000000000000000081526004018080602001828103825260228152602001806156596022913960400191505060405180910390fd5b82600001828154811061495957fe5b9060005260206000200154905092915050565b600080828460000180549050116149ce576040517f08c379a00000000000000000000000000000000000000000000000000000000081526004018080602001828103825260228152602001806158c86022913960400191505060405180910390fd5b60008460000184815481106149df57fe5b906000526020600020906002020190508060000154816001015492509250509250929050565b60008084600101600085815260200190815260200160002054905060008114158390614acc576040517f08c379a00000000000000000000000000000000000000000000000000000000081526004018080602001828103825283818151815260200191508051906020019080838360005b83811015614a91578082015181840152602081019050614a76565b50505050905090810190601f168015614abe5780820380516001836020036101000a031916815260200191505b509250505060405180910390fd5b50846000016001820381548110614adf57fe5b9060005260206000209060020201600101549150509392505050565b600081600001805490509050919050565b6000614b2d8473ffffffffffffffffffffffffffffffffffffffff16615019565b614b3a5760019050614d49565b6060614cd063150b7a0260e01b614b4f614165565b888787604051602401808573ffffffffffffffffffffffffffffffffffffffff1673ffffffffffffffffffffffffffffffffffffffff1681526020018473ffffffffffffffffffffffffffffffffffffffff1673ffffffffffffffffffffffffffffffffffffffff16815260200183815260200180602001828103825283818151815260200191508051906020019080838360005b83811015614bff578082015181840152602081019050614be4565b50505050905090810190601f168015614c2c5780820380516001836020036101000a031916815260200191505b5095505050505050604051602081830303815290604052907bffffffffffffffffffffffffffffffffffffffffffffffffffffffff19166020820180517bffffffffffffffffffffffffffffffffffffffffffffffffffffffff838183161783525050505060405180606001604052806032815260200161567b603291398773ffffffffffffffffffffffffffffffffffffffff166150649092919063ffffffff16565b90506000818060200190516020811015614ce957600080fd5b8101908080519060200190929190505050905063150b7a0260e01b7bffffffffffffffffffffffffffffffffffffffffffffffffffffffff1916817bffffffffffffffffffffffffffffffffffffffffffffffffffffffff191614925050505b949350505050565b614d5b838361507c565b614d686000848484614b0c565b614dbd576040517f08c379a000000000000000000000000000000000000000000000000000000000815260040180806020018281038252603281526020018061567b6032913960400191505060405180910390fd5b505050565b600080836001016000848152602001908152602001600020541415905092915050565b60008083600101600084815260200190815260200160002054905060008114614ec15760006001820390506000600186600001805490500390506000866000018281548110614e3057fe5b9060005260206000200154905080876000018481548110614e4d57fe5b9060005260206000200181905550600183018760010160008381526020019081526020016000208190555086600001805480614e8557fe5b60019003818190600052602060002001600090559055866001016000878152602001908152602001600020600090556001945050505050614ec7565b60009150505b92915050565b6000614ed98383615270565b614f32578260000182908060018154018082558091505060019003906000526020600020016000909190919091505582600001805490508360010160008481526020019081526020016000208190555060019050614f37565b600090505b92915050565b6000808460010160008581526020019081526020016000205490506000811415614fe457846000016040518060400160405280868152602001858152509080600181540180825580915050600190039060005260206000209060020201600090919091909150600082015181600001556020820151816001015550508460000180549050856001016000868152602001908152602001600020819055506001915050615012565b82856000016001830381548110614ff757fe5b90600052602060002090600202016001018190555060009150505b9392505050565b60008060007fc5d2460186f7233c927e7db2dcc703c0e500b653ca82273b7bfad8045d85a47060001b9050833f915080821415801561505b57506000801b8214155b92505050919050565b60606150738484600085615293565b90509392505050565b600073ffffffffffffffffffffffffffffffffffffffff168273ffffffffffffffffffffffffffffffffffffffff16141561511f576040517f08c379a00000000000000000000000000000000000000000000000000000000081526004018080602001828103825260208152602001807f4552433732313a206d696e7420746f20746865207a65726f206164647265737381525060200191505060405180910390fd5b61512881614148565b1561519b576040517f08c379a000000000000000000000000000000000000000000000000000000000815260040180806020018281038252601c8152602001807f4552433732313a20746f6b656e20616c7265616479206d696e7465640000000081525060200191505060405180910390fd5b6151a76000838361487b565b6151f881600160008573ffffffffffffffffffffffffffffffffffffffff1673ffffffffffffffffffffffffffffffffffffffff16815260200190815260200160002061489a90919063ffffffff16565b5061520f818360026148b49092919063ffffffff16565b50808273ffffffffffffffffffffffffffffffffffffffff16600073ffffffffffffffffffffffffffffffffffffffff167fddf252ad1be2c89b69c2b068fc378daa952ba7f163c4a11628f55a4df523b3ef60405160405180910390a45050565b600080836001016000848152602001908152602001600020541415905092915050565b606061529e85615019565b615310576040517f08c379a000000000000000000000000000000000000000000000000000000000815260040180806020018281038252601d8152602001807f416464726573733a2063616c6c20746f206e6f6e2d636f6e747261637400000081525060200191505060405180910390fd5b600060608673ffffffffffffffffffffffffffffffffffffffff1685876040518082805190602001908083835b60208310615360578051825260208201915060208101905060208303925061533d565b6001836020036101000a03801982511681845116808217855250505050505090500191505060006040518083038185875af1925050503d80600081146153c2576040519150601f19603f3d011682016040523d82523d6000602084013e6153c7565b606091505b509150915081156153dc578092505050615491565b6000815111156153ef5780518082602001fd5b836040517f08c379a00000000000000000000000000000000000000000000000000000000081526004018080602001828103825283818151815260200191508051906020019080838360005b8381101561545657808201518184015260208101905061543b565b50505050905090810190601f1680156154835780820380516001836020036101000a031916815260200191505b509250505060405180910390fd5b949350505050565b8280548282559060005260206000209081019282156154d5579160200282015b828111156154d45782518255916020019190600101906154b9565b5b5090506154e29190615633565b5090565b828054600181600116156101000203166002900490600052602060002090601f016020900481019282601f1061552757803560ff1916838001178555615555565b82800160010185558215615555579182015b82811115615554578235825591602001919060010190615539565b5b5090506155629190615633565b5090565b8280548282559060005260206000209081019282156155a2579160200282015b828111156155a1578251825591602001919060010190615586565b5b5090506155af9190615633565b5090565b828054600181600116156101000203166002900490600052602060002090601f016020900481019282601f106155f457805160ff1916838001178555615622565b82800160010185558215615622579182015b82811115615621578251825591602001919060010190615606565b5b50905061562f9190615633565b5090565b61565591905b80821115615651576000816000905550600101615639565b5090565b9056fe456e756d657261626c655365743a20696e646578206f7574206f6620626f756e64734552433732313a207472616e7366657220746f206e6f6e20455243373231526563656976657220696d706c656d656e74657268747470733a2f2f766173742d726565662d33323934392e6865726f6b756170702e636f6d2f6170692f746f6b656e2f4552433732313a207472616e7366657220746f20746865207a65726f20616464726573734e465420666f722074686520737570706c69656420746f6b656e4964206973206e6f74206d696e746564207965744e6577207061747465726e2069732073616d65206173207468652063757272656e74206f6e654f6e6c79206f776e657220697320617574686f72697a656420666f722074686973207472616e73616374696f6e4552433732313a206f70657261746f7220717565727920666f72206e6f6e6578697374656e7420746f6b656e45746865722076616c756520697320696e636f72726563742c20706c656173652073656e6420636f727265637420616d6f756e744552433732313a20617070726f76652063616c6c6572206973206e6f74206f776e6572206e6f7220617070726f76656420666f7220616c6c596f752063616e206d696e74206f6e6c792031206f722032206f72203320746f6b656e7320696e206f6e65206f7065726174696f6e2e4552433732313a2062616c616e636520717565727920666f7220746865207a65726f20616464726573734552433732313a206f776e657220717565727920666f72206e6f6e6578697374656e7420746f6b656e4f6e6c7920736b696e206f776e65722063616e207669657720746865697220736b696e732e456e756d657261626c654d61703a20696e646578206f7574206f6620626f756e64734552433732313a20617070726f76656420717565727920666f72206e6f6e6578697374656e7420746f6b656e4552433732314d657461646174613a2055524920736574206f66206e6f6e6578697374656e7420746f6b656e4552433732313a207472616e73666572206f6620746f6b656e2074686174206973206e6f74206f776e4552433732314d657461646174613a2055524920717565727920666f72206e6f6e6578697374656e7420746f6b656e4552433732313a20617070726f76616c20746f2063757272656e74206f776e65724d6178203320746f6b656e732063616e206265206d696e7465642070657220757365724552433732313a207472616e736665722063616c6c6572206973206e6f74206f776e6572206e6f7220617070726f766564546f6b656e2049642073686f756c64206265206c657373207468616e206d6178696d756d20737570706c7943616e6e6f74206d696e74206d6f7265204e46542c203230343820697320746865206d6178204e465420737570706c79206c696d6974a2646970667358221220ca4c357049728a640606b5cfcae97c076d6f1ecc7a4c0b0247c5a40748bd4b6964736f6c63430006060033",
  "immutableReferences": {},
  "source": "// SPDX-License-Identifier: MIT\r\npragma solidity ^0.6.6;\r\n\r\nimport \"@openzeppelin/contracts/token/ERC721/ERC721.sol\";\r\nimport \"@openzeppelin/contracts/utils/Strings.sol\"; \r\n\r\ninterface Token20 {\r\n    //This will set the birth time of NFT in ICT contract\r\n    function setBirthOfNFT(uint256 _tokenId, uint256 _time) external;\r\n\r\n    /**\r\n     * @dev Returns the amount of tokens in existence.\r\n     */\r\n    function totalSupply() external view returns (uint256);\r\n\r\n    /**\r\n     * @dev Returns the amount of tokens owned by `account`.\r\n     */\r\n    function balanceOf(address account) external view returns (uint256);\r\n\r\n    /**\r\n     * @dev Moves `amount` tokens from the caller's account to `recipient`.\r\n     *\r\n     * Returns a boolean value indicating whether the operation succeeded.\r\n     *\r\n     * Emits a {Transfer} event.\r\n     */\r\n    function transfer(address recipient, uint256 amount)\r\n        external\r\n        returns (bool);\r\n\r\n    /**\r\n     * @dev Returns the remaining number of tokens that `spender` will be\r\n     * allowed to spend on behalf of `owner` through {transferFrom}. This is\r\n     * zero by default.\r\n     *\r\n     * This value changes when {approve} or {transferFrom} are called.\r\n     */\r\n    function allowance(address owner, address spender)\r\n        external\r\n        view\r\n        returns (uint256);\r\n\r\n    /**\r\n     * @dev Sets `amount` as the allowance of `spender` over the caller's tokens.\r\n     *\r\n     * Returns a boolean value indicating whether the operation succeeded.\r\n     *\r\n     * IMPORTANT: Beware that changing an allowance with this method brings the risk\r\n     * that someone may use both the old and the new allowance by unfortunate\r\n     * transaction ordering. One possible solution to mitigate this race\r\n     * condition is to first reduce the spender's allowance to 0 and set the\r\n     * desired value afterwards:\r\n     * https://github.com/ethereum/EIPs/issues/20#issuecomment-263524729\r\n     *\r\n     * Emits an {Approval} event.\r\n     */\r\n    function approve(\r\n        address owner,\r\n        address spender,\r\n        uint256 amount\r\n    ) external returns (bool);\r\n\r\n    /**\r\n     * @dev Moves `amount` tokens from `sender` to `recipient` using the\r\n     * allowance mechanism. `amount` is then deducted from the caller's\r\n     * allowance.\r\n     *\r\n     * Returns a boolean value indicating whether the operation succeeded.\r\n     *\r\n     * Emits a {Transfer} event.\r\n     */\r\n    function transferFrom(\r\n        address sender,\r\n        address recipient,\r\n        uint256 amount\r\n    ) external returns (bool);\r\n\r\n    /**\r\n     * TODO: Add comment\r\n     */\r\n    function burn(uint256 burnQuantity) external returns (bool);\r\n\r\n    /**\r\n     * @dev Emitted when `value` tokens are moved from one account (`from`) to\r\n     * another (`to`).\r\n     *\r\n     * Note that `value` may be zero.\r\n     */\r\n    event Transfer(address indexed from, address indexed to, uint256 value);\r\n\r\n    /**\r\n     * @dev Emitted when the allowance of a `spender` for an `owner` is set by\r\n     * a call to {approve}. `value` is the new allowance.\r\n     */\r\n    event Approval(\r\n        address indexed owner,\r\n        address indexed spender,\r\n        uint256 value\r\n    );\r\n}\r\n\r\ncontract LedNFT is ERC721 {\r\n    using SafeMath for uint256;\r\n    mapping(uint256 => bool) public numNotAllowed;\r\n    mapping(uint256 => address payable) public initialOwner;\r\n\r\n    // tokens minted by an address\r\n    mapping(address => uint256) public mintCount;\r\n    uint256[] mintedIds;\r\n\r\n    struct tokenSaleStat {\r\n        bool forSale;\r\n        uint256 price;\r\n    }\r\n    mapping(uint256 => tokenSaleStat) public tokenSaleData;\r\n\r\n    uint256 nonce = 0;\r\n\r\n    event MintedNFT(address indexed _owner, uint256 indexed _tokenId);\r\n\r\n    // owners and their pulse and seed\r\n    struct pulseData {\r\n        uint256[] pulse;\r\n        uint256 seed;\r\n    }\r\n\r\n    // owner of skin\r\n    mapping(bytes32 => address) public skinOwner;\r\n\r\n    // skin to pulseData\r\n    mapping(bytes32 => pulseData) public skinToPulse;\r\n\r\n    // token to skins\r\n    mapping(uint256 => bytes32[]) public tokenSkin;\r\n\r\n    // token to tokenhash\r\n    mapping(uint256 => bytes32) public tokenHash;\r\n\r\n    //mapping for NFT tokendID to blinking pattern\r\n    mapping(uint256 => uint256[]) public ledNFTBlinkPattern;\r\n\r\n    //Store the ICT token contract address\r\n    address public ICTContractAddress;\r\n\r\n    //owner of the contract\r\n    address public owner;\r\n\r\n    //mapping of address to their minted token count\r\n    mapping(address => uint256) public ownerTotalTokensMintCount;\r\n\r\n    //end time for minting NFT once the timer is started\r\n    uint256 public endTime;\r\n\r\n    //It stores the pause/unpause status of minting (owner can pause/unpause the minting)\r\n    bool public isMintingActive;\r\n\r\n    //Maximum NFT supply\r\n    uint256 public constant MAX_NFT_SUPPLY = 2048;\r\n\r\n    //1 ICT token is required to change the LED NFT blink pattern\r\n    uint256 public constant BLINK_PATTERN_CHANGE_PRICE = 1 * 10**18;\r\n\r\n    modifier onlyOwner() {\r\n        require(\r\n            owner == msg.sender,\r\n            \"Only owner is authorized for this transaction\"\r\n        );\r\n        _;\r\n    }\r\n\r\n    mapping(uint256 => string) public _tokenURIs;\r\n\r\n    string public p5jsGenerativeArtScript;\r\n    constructor(address _ictAddress) public ERC721(\"LedNFT\", \"LED\") {\r\n        ICTContractAddress = _ictAddress;\r\n        owner = msg.sender;\r\n        isMintingActive = false;\r\n        endTime = 0;\r\n    }\r\n\r\n    //Function to set p5js\r\n    function setP5JS(string calldata _script) external onlyOwner {\r\n        bytes memory tempEmptyStringTest = bytes(p5jsGenerativeArtScript); // Uses memory\r\n        require(tempEmptyStringTest.length == 0, \"AlreadySet\");\r\n        p5jsGenerativeArtScript = _script;\r\n    }\r\n\r\n    //Function accepts epoch time as parameter which will be added to the current epoch time and timer will be started\r\n    function startTimerForNFTMinting(uint256 _endTimeLimit) external onlyOwner {\r\n        endTime = block.timestamp + _endTimeLimit;\r\n    }\r\n\r\n    //Function to pause and unpause minting process\r\n    function pauseUnpauseMinting(bool _status) external onlyOwner {\r\n        isMintingActive = _status;\r\n    }\r\n\r\n    //function to get the NFT price based on the supplied NFT's\r\n    function getNFTPrice(uint256 _nos) public view returns (uint256) {\r\n        require(endTime >= block.timestamp, \"Sale is over!\");\r\n        require(totalSupply() <= MAX_NFT_SUPPLY, \"All NFT's are minted\");\r\n\r\n        uint256 priceOfOneToken = 0.8 * 10**18;\r\n\r\n        return _nos * priceOfOneToken;\r\n    }\r\n\r\n    //Get contract balance\r\n    function getContractBalance() public view onlyOwner returns (uint256) {\r\n        return address(this).balance;\r\n    }\r\n\r\n    //Get the blinking pattern for any LED NFT\r\n    function getBlinkPatternOfTokenID(uint256 _tokenId)\r\n        public\r\n        view\r\n        returns (uint256[] memory)\r\n    {\r\n        require(\r\n            _tokenId <= MAX_NFT_SUPPLY,\r\n            \"Token Id should be less than maximum supply\"\r\n        );\r\n        require(\r\n            ledNFTBlinkPattern[_tokenId].length == 30,\r\n            \"NFT for the supplied tokenId is not minted yet\"\r\n        );\r\n        return ledNFTBlinkPattern[_tokenId];\r\n    }\r\n\r\n    //method to mint LED NFT tokens for msg.sender\r\n    function mintToken(uint256 _nos) public payable {\r\n        require(\r\n            _nos >= 1 && _nos <= 3,\r\n            \"You can mint only 1 or 2 or 3 tokens in one operation.\"\r\n        );\r\n        for (uint8 j = 0; j < _nos; j++) {\r\n            require(isMintingActive == true, \"Minting is Paused!\");\r\n\r\n            require(endTime >= block.timestamp, \"Sale is over!\");\r\n\r\n            require(\r\n                ownerTotalTokensMintCount[msg.sender] < 3,\r\n                \"Max 3 tokens can be minted per user\"\r\n            );\r\n\r\n            require(\r\n                totalSupply() < MAX_NFT_SUPPLY,\r\n                \"Cannot mint more NFT, 2048 is the max NFT supply limit\"\r\n            );\r\n\r\n            require(\r\n                getNFTPrice(_nos) == msg.value,\r\n                \"Ether value is incorrect, please send correct amount\"\r\n            );\r\n\r\n            // uint256 tokenId = totalSupply() + 1;\r\n            uint256 tokenId = 0;\r\n            uint256 randomNumber = uint256(\r\n                keccak256(abi.encodePacked(now, msg.sender, nonce))\r\n            ) % 2048;\r\n            randomNumber = randomNumber + 1;\r\n            nonce++;\r\n\r\n            do {\r\n                if (numNotAllowed[randomNumber] == true) {\r\n                    randomNumber = (randomNumber + 1) % 2049;\r\n                    if (randomNumber == 0) {\r\n                        randomNumber = randomNumber + 1;\r\n                    }\r\n                } else {\r\n                    numNotAllowed[randomNumber] = true;\r\n                    tokenId = randomNumber;\r\n                    break;\r\n                }\r\n            } while (tokenId == 0);\r\n\r\n            // forSale[_tokenId] = false;\r\n            mintCount[msg.sender] += 1;\r\n            initialOwner[tokenId] = msg.sender;\r\n            ++ownerTotalTokensMintCount[msg.sender];\r\n            mintedIds.push(tokenId);\r\n\r\n            //Generating random LED blink pattern array\r\n            for (uint256 i = 0; i < 30; i++) {\r\n                ledNFTBlinkPattern[tokenId].push(\r\n                    uint256(\r\n                        keccak256(\r\n                            abi.encodePacked(\r\n                                msg.sender,\r\n                                block.timestamp,\r\n                                block.difficulty,\r\n                                i\r\n                            )\r\n                        )\r\n                    ) % 101\r\n                );\r\n            }\r\n\r\n            // pulseOwner[msg.sender].pulse = getBlinkPatternOfTokenID(tokenId);\r\n            // pulseOwner[msg.sender].seed = nseed;\r\n\r\n            // generating a unique seed\r\n            uint256 nseed = uint256(\r\n                keccak256(abi.encodePacked(tokenId, block.timestamp))\r\n            );\r\n\r\n            // pulse\r\n            uint256[] memory npulse = getBlinkPatternOfTokenID(tokenId);\r\n            // use built array\r\n\r\n            // calculate skin\r\n            bytes32 skin = keccak256(abi.encodePacked(npulse, nseed));\r\n\r\n            // record history of skin - token to string\r\n            tokenSkin[tokenId].push(skin);\r\n\r\n            skinOwner[skin] = msg.sender;\r\n\r\n            // skin to its data\r\n            skinToPulse[skin].pulse = npulse;\r\n            skinToPulse[skin].seed = nseed;\r\n\r\n            //set birth time of NFT in ICT contract, this will be used in calculation of claim ICT amount\r\n            Token20(ICTContractAddress).setBirthOfNFT(tokenId, block.timestamp);\r\n            tokenHash[tokenId] = keccak256(abi.encodePacked(tokenId));\r\n\r\n            //Mint ERC721\r\n            _safeMint(msg.sender, tokenId);\r\n            string memory uri =  string(abi.encodePacked(\"https://vast-reef-32949.herokuapp.com/api/token/\", Strings.toString(tokenId)));\r\n            _setTokenURI(\r\n                tokenId,\r\n                uri\r\n            );\r\n            emit MintedNFT(msg.sender, tokenId);\r\n        }\r\n    }\r\n\r\n    function changeLEDBlinkPattern(\r\n        uint256 _tokenId,\r\n        uint256[30] memory _newPattern\r\n    ) public {\r\n        address ownerOfToken = ownerOf(_tokenId);\r\n        require(ownerOfToken == msg.sender, \"Not authorised\");\r\n        require(\r\n            Token20(ICTContractAddress).balanceOf(msg.sender) >=\r\n                BLINK_PATTERN_CHANGE_PRICE,\r\n            \"Not enough balance\"\r\n        );\r\n        require(\r\n            keccak256(abi.encodePacked(_newPattern)) !=\r\n                keccak256(abi.encodePacked(getBlinkPatternOfTokenID(_tokenId))),\r\n            \"New pattern is same as the current one\"\r\n        );\r\n\r\n        //validate blink pattern\r\n        for (uint256 i = 0; i < 30; i++) {\r\n            if (!(_newPattern[i] >= 0 && _newPattern[i] <= 100)) {\r\n                revert(\"Invalid blink pattern\");\r\n            }\r\n        }\r\n\r\n        ledNFTBlinkPattern[_tokenId] = _newPattern;\r\n\r\n        // new seed\r\n        uint256 nseed = uint256(\r\n            keccak256(abi.encodePacked(_tokenId, block.timestamp))\r\n        );\r\n\r\n        // calculate skin\r\n        bytes32 skin = keccak256(abi.encodePacked(_newPattern, nseed));\r\n\r\n        // record history of skin - token to string\r\n        tokenSkin[_tokenId].push(skin);\r\n\r\n        skinOwner[skin] = msg.sender;\r\n\r\n        // skin to its data\r\n        skinToPulse[skin].pulse = _newPattern;\r\n        skinToPulse[skin].seed = nseed;\r\n\r\n        Token20(ICTContractAddress).approve(\r\n            msg.sender,\r\n            address(this),\r\n            BLINK_PATTERN_CHANGE_PRICE\r\n        );\r\n        bool res1 = Token20(ICTContractAddress).transferFrom(\r\n            msg.sender,\r\n            address(this),\r\n            BLINK_PATTERN_CHANGE_PRICE\r\n        );\r\n\r\n        require(res1, \"Failed to transfer ICT\");\r\n    }\r\n\r\n    //Owner can withdraw the Ethers collected via NFT minting\r\n    function withdrawCollectedEther() public onlyOwner {\r\n        address payable addr = payable(msg.sender);\r\n        uint256 amount = getContractBalance();\r\n        addr.transfer(amount);\r\n    }\r\n\r\n    function mintedTokens(address _address) public view returns (uint256) {\r\n        return mintCount[_address];\r\n    }\r\n\r\n    function getPriceOfToken(uint256 _tokenId) public view returns (uint256) {\r\n        return tokenSaleData[_tokenId].price;\r\n    }\r\n\r\n    // list of all ids in circulation\r\n    function allMintedId() public view returns (uint256[] memory) {\r\n        return mintedIds;\r\n    }\r\n\r\n    // get all skins of a token\r\n    function getSkinsOfToken(uint256 _tokenId)\r\n        public\r\n        view\r\n        returns (bytes32[] memory)\r\n    {\r\n        require(\r\n            msg.sender == ownerOf(_tokenId),\r\n            \"You can only view your own skins\"\r\n        );\r\n        return tokenSkin[_tokenId];\r\n    }\r\n\r\n    function getpulseNSeed(bytes32 _skin)\r\n        public\r\n        view\r\n        returns (uint256[] memory, uint256)\r\n    {\r\n        require(\r\n            msg.sender == skinOwner[_skin],\r\n            \"Only skin owner can view their skins.\"\r\n        );\r\n\r\n        return (skinToPulse[_skin].pulse, skinToPulse[_skin].seed);\r\n    }\r\n\r\n    function _setTokenURI(uint256 tokenId, string memory _tokenURI) internal override {\r\n        require(\r\n            _exists(tokenId),\r\n            \"ERC721Metadata: URI set of nonexistent token\"\r\n        );\r\n        _tokenURIs[\r\n            tokenId\r\n        ] = _tokenURI;\r\n    }\r\n\r\n}\r\n",
  "sourcePath": "D:/holon/NFT/nft-truffle/src/contracts/LedNFT.sol",
  "compiler": {
    "name": "solc",
    "version": "0.6.6+commit.6c089d02.Emscripten.clang"
  },
  "schemaVersion": "3.4.1",
  "updatedAt": "2022-04-14T21:20:35.430Z",
  "networkType": "ethereum",
  "devdoc": {
    "methods": {
      "approve(address,uint256)": {
        "details": "See {IERC721-approve}."
      },
      "balanceOf(address)": {
        "details": "See {IERC721-balanceOf}."
      },
      "baseURI()": {
        "details": "Returns the base URI set via {_setBaseURI}. This will be automatically added as a prefix in {tokenURI} to each token's URI, or to the token ID if no specific URI is set for that token ID."
      },
      "getApproved(uint256)": {
        "details": "See {IERC721-getApproved}."
      },
      "isApprovedForAll(address,address)": {
        "details": "See {IERC721-isApprovedForAll}."
      },
      "name()": {
        "details": "See {IERC721Metadata-name}."
      },
      "ownerOf(uint256)": {
        "details": "See {IERC721-ownerOf}."
      },
      "safeTransferFrom(address,address,uint256)": {
        "details": "See {IERC721-safeTransferFrom}."
      },
      "safeTransferFrom(address,address,uint256,bytes)": {
        "details": "See {IERC721-safeTransferFrom}."
      },
      "setApprovalForAll(address,bool)": {
        "details": "See {IERC721-setApprovalForAll}."
      },
      "supportsInterface(bytes4)": {
        "details": "See {IERC165-supportsInterface}.     * Time complexity O(1), guaranteed to always use less than 30 000 gas."
      },
      "symbol()": {
        "details": "See {IERC721Metadata-symbol}."
      },
      "tokenByIndex(uint256)": {
        "details": "See {IERC721Enumerable-tokenByIndex}."
      },
      "tokenOfOwnerByIndex(address,uint256)": {
        "details": "See {IERC721Enumerable-tokenOfOwnerByIndex}."
      },
      "tokenURI(uint256)": {
        "details": "See {IERC721Metadata-tokenURI}."
      },
      "totalSupply()": {
        "details": "See {IERC721Enumerable-totalSupply}."
      },
      "transferFrom(address,address,uint256)": {
        "details": "See {IERC721-transferFrom}."
      }
    }
  },
  "userdoc": {
    "methods": {}
  }
}